C70000112AFL-CIO COPE POLITICAL CONTRIBUTIONS COMMITTEE                                            CUQ+000000000+000000000+000000000+000000000+000000000+000000000+000000000+000000000+000000000+000000000+000000000+000000000+000000000+000000000+000000000+000000000+000000000+000000000+000000000+000000000+00000000000000000
C70004874AFSCME COUNCIL 13                                                                         CUQ+000000000+000000000+000000000+000000000+000000000+000000000+000000000+000000000+000000000+000000000+000000000+000000000+000000000+000000000+000000000+000000000+000000000+000000000+000000000+000000000+00000000000000000
C70005004AFSCME COUNCIL 31 POLITICAL CONTRIBUTION                                                  CUQ+000000000+000000000+000000000+000000000+000000000+000000000+000000000+000000000+000000000+000000000+000000000+000000000+000000000+000000000+000000000+000000000+000000000+000000000+000000000+000000000+00000000000000000
C70000914AMALGAMATED TRANSIT UNION                                                                 CUQ+000000000+000000000+000000000+000000000+000000000+000000000+000000000+000000000+000000000+000000000+000000000+000000000+000000000+000000000+000000000+000000000+000000000+000000000+000000000+000000000+00000000000000000
C70003017AMERICAN ASSOCIATION FOR JUSTICE                                                          CUQ+000000000+000000000+000000000+000000000+000000000+000000000+000000000+000000115+000000000+000000000+000000000+000000000+000000000+000000000+000000000+000000000+000000000+000000000+000000000+000000000+00000000003312012
C70000120AMERICAN FEDERATION OF STATE, COUNTY AND MUNICIPAL EMPLOYEES, AFL-CIO                     CUQ+000000000+000000000+000000000+000000000+000000000+000000000+000000000+000013038+000000000+000000000+000000000+000000000+000000000+000000000+000000000+000000000+000000000+000000000+000000000+000000000+00000000003312012
C70002472AMERICAN FEDERATION OF TEACHERS, AFL-CIO                                                  CUQ+000000000+000000000+000000000+000000000+000000000+000000000+000000000+000225322+000000000+000000000+000000000+000000000+000000000+000000000+000000000+000000000+000000000+000000000+000000000+000000000+00000000003312012
C70003686AMERICAN FIRST CREDIT UNION                                                               CUQ+000000000+000000000+000000000+000000000+000000000+000000000+000000000+000000000+000000000+000000000+000000000+000000000+000000000+000000000+000000000+000000000+000000000+000000000+000000000+000000000+00000000000000000
C70001847AMERICAN MEDICAL ASSOCIATION                                                              CUQ+000000000+000000000+000000000+000000000+000000000+000000000+000000000+000000000+000000000+000000000+000000000+000000000+000000000+000000000+000000000+000000000+000000000+000000000+000000000+000000000+00000000000000000
C70004684AMERICAN SOCIETY OF ANESTHESIOLOGISTS                                                     CUQ+000000000+000000000+000000000+000000000+000000000+000000000+000000000+000000000+000000000+000000000+000000000+000000000+000000000+000000000+000000000+000000000+000000000+000000000+000000000+000000000+00000000000000000
C70005335ARIZONA CREDIT UNION LEAGUE                                                               CUQ+000000000+000000000+000000000+000000000+000000000+000000000+000000000+000000000+000000000+000000000+000000000+000000000+000000000+000000000+000000000+000000000+000000000+000000000+000000000+000000000+00000000000000000
C70004056ARKANSAS EDUCATION ASSOCIATION                                                            CUQ+000000000+000000000+000000000+000000000+000000000+000000000+000000000+000000000+000000000+000000000+000000000+000000000+000000000+000000000+000000000+000000000+000000000+000000000+000000000+000000000+00000000000000000
C70005053ASSOCIATION FOR COMMUNITY ORGANIZATIONS FOR REFORM NOW (ACORN)                            CUQ+000000000+000000000+000000000+000000000+000000000+000000000+000000000+000000000+000000000+000000000+000000000+000000000+000000000+000000000+000000000+000000000+000000000+000000000+000000000+000000000+00000000000000000
C70003819BELLO CREDIT UNION                                                                        CUQ+000000000+000000000+000000000+000000000+000000000+000000000+000000000+000000000+000000000+000000000+000000000+000000000+000000000+000000000+000000000+000000000+000000000+000000000+000000000+000000000+00000000000000000
C70004908BROTHERHOOD OF LOCOMOTIVE ENGINEERS AND TRAINMEN                                          CUQ+000000000+000000000+000000000+000000000+000000000+000000000+000000000+000004667+000000000+000000000+000000000+000000000+000000000+000000000+000000000+000000000+000000000+000000000+000000000+000000000+00000000011082011
C70003009BUSINESS COUNCIL OF ALABAMA                                                               CUQ+000000000+000000000+000000000+000000000+000000000+000000000+000000000+000000000+000000000+000000000+000000000+000000000+000000000+000000000+000000000+000000000+000000000+000000000+000000000+000000000+00000000000000000
C70005418CALIFORNIA FEDERATION OF TEACHERS, AFT, AFL-CIO                                           CUQ+000000000+000000000+000000000+000000000+000000000+000000000+000000000+000000000+000000000+000000000+000000000+000000000+000000000+000000000+000000000+000000000+000000000+000000000+000000000+000000000+00000000000000000
C70004791CALIFORNIA NURSES ASSOCIATION/NATIONAL NURSES ORGANIZING COMMITTEE                        CUQ+000000000+000000000+000000000+000000000+000000000+000000000+000000000+000000000+000000000+000000000+000000000+000000000+000000000+000000000+000000000+000000000+000000000+000000000+000000000+000000000+00000000000000000
C70003611CALIFORNIA SCHOOL EMPLOYEES ASSOCIATION                                                   CUQ+000000000+000000000+000000000+000000000+000000000+000000000+000000000+000000000+000000000+000000000+000000000+000000000+000000000+000000000+000000000+000000000+000000000+000000000+000000000+000000000+00000000000000000
C70003199CALIFORNIA STATE COUNCIL OF SERVICE EMPLOYEES                                             CUQ+000000000+000000000+000000000+000000000+000000000+000000000+000000000+000000000+000000000+000000000+000000000+000000000+000000000+000000000+000000000+000000000+000000000+000000000+000000000+000000000+00000000000000000
C70001227CALIFORNIA TEACHERS ASSOCIATION                                                           CUQ+000000000+000000000+000000000+000000000+000000000+000000000+000000000+000000000+000000000+000000000+000000000+000000000+000000000+000000000+000000000+000000000+000000000+000000000+000000000+000000000+00000000000000000
C70004692CARPENTERS DISTRICT COUNCIL OF KANSAS CITY AND VICINITY                                   CUQ+000000000+000000000+000000000+000000000+000000000+000000000+000000000+000000000+000000000+000000000+000000000+000000000+000000000+000000000+000000000+000000000+000000000+000000000+000000000+000000000+00000000000000000
C70004825CFT COPE                                                                                  CUQ+000000000+000000000+000000000+000000000+000000000+000000000+000000000+000000000+000000000+000000000+000000000+000000000+000000000+000000000+000000000+000000000+000000000+000000000+000000000+000000000+00000000000000000
C70004510CHANGE TO WIN                                                                             CUQ+000000000+000000000+000000000+000000000+000000000+000000000+000000000+000000000+000000000+000000000+000000000+000000000+000000000+000000000+000000000+000000000+000000000+000000000+000000000+000000000+00000000003312012
C70004718CHICAGO AND MIDWEST REGIONAL JOINT BOARD UNITE HERE                                       CUQ+000000000+000000000+000000000+000000000+000000000+000000000+000000000+000000000+000000000+000000000+000000000+000000000+000000000+000000000+000000000+000000000+000000000+000000000+000000000+000000000+00000000000000000
C70004163CIVIL SERVICE EMPLOYEES POLITICAL ACTION FUND                                             CUQ+000000000+000000000+000000000+000000000+000000000+000000000+000000000+000000000+000000000+000000000+000000000+000000000+000000000+000000000+000000000+000000000+000000000+000000000+000000000+000000000+00000000000000000
C70000211COMMUNICATION WORKERS OF AMERICA                                                          CUQ+000000000+000000000+000000000+000000000+000000000+000000000+000000000+000000000+000000000+000000000+000000000+000000000+000000000+000000000+000000000+000000000+000000000+000000000+000000000+000000000+00000000000000000
C70005285COMMUNICATIONS WORKERS OF AMERICA                                                         CUQ+000000000+000000000+000000000+000000000+000000000+000000000+000000000+000000000+000000000+000000000+000000000+000000000+000000000+000000000+000000000+000000000+000000000+000000000+000000000+000000000+00000000000000000
C70004627CULINARY WORKERS UNION LOCAL 226                                                          CUQ+000000000+000000000+000000000+000000000+000000000+000000000+000000000+000000000+000000000+000000000+000000000+000000000+000000000+000000000+000000000+000000000+000000000+000000000+000000000+000000000+00000000000000000
C70004445CYPRUS FEDERAL CREDIT UNION                                                               CUQ+000000000+000000000+000000000+000000000+000000000+000000000+000000000+000000000+000000000+000000000+000000000+000000000+000000000+000000000+000000000+000000000+000000000+000000000+000000000+000000000+00000000000000000
C70003389DELAWARE STATE EDUCATION ASSOCIATION INC                                                  CUQ+000000000+000000000+000000000+000000000+000000000+000000000+000000000+000000000+000000000+000000000+000000000+000000000+000000000+000000000+000000000+000000000+000000000+000000000+000000000+000000000+00000000000000000
C70003694DESERET FIRST CREDIT UNION                                                                CUQ+000000000+000000000+000000000+000000000+000000000+000000000+000000000+000000000+000000000+000000000+000000000+000000000+000000000+000000000+000000000+000000000+000000000+000000000+000000000+000000000+00000000000000000
C70001060EDUCATION MINNESOTA                                                                       CUQ+000000000+000000000+000000000+000000000+000000000+000000000+000000000+000000000+000000000+000000000+000000000+000000000+000000000+000000000+000000000+000000000+000000000+000000000+000000000+000000000+00000000000000000
C70004957FLORIDA ALLIANCE OF PLANNED PARENTHOOD AFFILIATES                                         CUQ+000000000+000000000+000000000+000000000+000000000+000000000+000000000+000000000+000000000+000000000+000000000+000000000+000000000+000000000+000000000+000000000+000000000+000000000+000000000+000000000+00000000000000000
C70003553FLORIDA EDUCATION ASSOCIATION                                                             CUQ+000000000+000000000+000000000+000000000+000000000+000000000+000000000+000001064+000000000+000000000+000000000+000000000+000000000+000000000+000000000+000000000+000000000+000000000+000000000+000000000+00000000001312011
C70005327GEORGIA CREDIT UNION LEAGUE                                                               CUQ+000000000+000000000+000000000+000000000+000000000+000000000+000000000+000000000+000000000+000000000+000000000+000000000+000000000+000000000+000000000+000000000+000000000+000000000+000000000+000000000+00000000000000000
C70000278HAWAII GOVERNMENT EMPLOYEES  ASSOCIATION                                                  CUQ+000000000+000000000+000000000+000000000+000000000+000000000+000000000+000000560+000000000+000000000+000000000+000000000+000000000+000000000+000000000+000000000+000000000+000000000+000000000+000000000+00000000003312011
C70005301HAWAII STATE TEACHERS ASSOCIATION POLITICAL ACTION COMMITTEE FUND                         CUQ+000000000+000000000+000000000+000000000+000000000+000000000+000000000+000000000+000000000+000000000+000000000+000000000+000000000+000000000+000000000+000000000+000000000+000000000+000000000+000000000+00000000000000000
C70004569HUMAN RIGHTS CAMPAIGN                                                                     CUQ+000000000+000000000+000000000+000000000+000000000+000000000+000000000+000015175+000000000+000000000+000000000+000000000+000000000+000000000+000000000+000000000+000000000+000000000+000000000+000000000+00000000004132012
C70005236IBEW LOCAL 494                                                                            CUQ+000000000+000000000+000000000+000000000+000000000+000000000+000000000+000000000+000000000+000000000+000000000+000000000+000000000+000000000+000000000+000000000+000000000+000000000+000000000+000000000+00000000000000000
C70003108INTERNATIONAL ASSOCIATION OF FIRE FIGHTERS                                                CUQ+000000000+000000000+000000000+000000000+000000000+000000000+000000000+000000000+000000000+000000000+000000000+000000000+000000000+000000000+000000000+000000000+000000000+000000000+000000000+000000000+00000000000000000
C70001979INTERNATIONAL BROTHERHOOD OF TEAMSTERS                                                    CUQ+000000000+000000000+000000000+000000000+000000000+000000000+000000000+000001115+000000000+000000000+000000000+000000000+000000000+000000000+000000000+000000000+000000000+000000000+000000000+000000000+00000000006302011
C70004783INTERNATIONAL LONSHORE AND WAREHOUSE UNION COAST PRO-RATA COMMITTEE                       CUQ+000000000+000000000+000000000+000000000+000000000+000000000+000000000+000000000+000000000+000000000+000000000+000000000+000000000+000000000+000000000+000000000+000000000+000000000+000000000+000000000+00000000000000000
C70002118INTERNATIONAL UNION OF OPERATING ENGINEERS                                                CUQ+000000000+000000000+000000000+000000000+000000000+000000000+000000000+000000000+000000000+000000000+000000000+000000000+000000000+000000000+000000000+000000000+000000000+000000000+000000000+000000000+00000000000000000
C70005343J  P MORGAN CHASE BANK N A                                                                CUQ+000000000+000000000+000000000+000000000+000000000+000000000+000000000+000000000+000000000+000000000+000000000+000000000+000000000+000000000+000000000+000000000+000000000+000000000+000000000+000000000+00000000000000000
C70005269JORDAN CREDIT UNION                                                                       CUQ+000000000+000000000+000000000+000000000+000000000+000000000+000000000+000000000+000000000+000000000+000000000+000000000+000000000+000000000+000000000+000000000+000000000+000000000+000000000+000000000+00000000000000000
C70003603KENTUCKY EDUCATION ASSOCIATION                                                            CUQ+000000000+000000000+000000000+000000000+000000000+000000000+000000000+000000000+000000000+000000000+000000000+000000000+000000000+000000000+000000000+000000000+000000000+000000000+000000000+000000000+00000000000000000
C70005434KS CREDIT UNION ASSOCIATION                                                               CUQ+000000000+000000000+000000000+000000000+000000000+000000000+000000000+000000000+000000000+000000000+000000000+000000000+000000000+000000000+000000000+000000000+000000000+000000000+000000000+000000000+00000000000000000
C70004817LABORERS LOCAL 341 LIUNA                                                                  CUQ+000000000+000000000+000000000+000000000+000000000+000000000+000000000+000000000+000000000+000000000+000000000+000000000+000000000+000000000+000000000+000000000+000000000+000000000+000000000+000000000+00000000000000000
C70004171LABORERS' INTERNATIONAL UNION OF NORTH AMERICA                                            CUQ+000000000+000000000+000000000+000000000+000000000+000000000+000000000+000000000+000000000+000000000+000000000+000000000+000000000+000000000+000000000+000000000+000000000+000000000+000000000+000000000+00000000000000000
C70005038LABORERS' INTERNATIONAL UNION OF NORTH AMERICA LOCAL #113                                 CUQ+000000000+000000000+000000000+000000000+000000000+000000000+000000000+000000000+000000000+000000000+000000000+000000000+000000000+000000000+000000000+000000000+000000000+000000000+000000000+000000000+00000000000000000
C70004890LABORERS' LOCAL 652                                                                       CUQ+000000000+000000000+000000000+000000000+000000000+000000000+000000000+000000000+000000000+000000000+000000000+000000000+000000000+000000000+000000000+000000000+000000000+000000000+000000000+000000000+00000000000000000
C70005103LABORERS' MID-ATLANTIC ORGANIZING COALITION                                               CUQ+000000000+000000000+000000000+000000000+000000000+000000000+000000000+000000000+000000000+000000000+000000000+000000000+000000000+000000000+000000000+000000000+000000000+000000000+000000000+000000000+00000000000000000
C70004239LOCAL 32BJ S E I U AFL-CIO                                                                CUQ+000000000+000000000+000000000+000000000+000000000+000000000+000000000+000000000+000000000+000000000+000000000+000000000+000000000+000000000+000000000+000000000+000000000+000000000+000000000+000000000+00000000000000000
C70003223LOS ANGELES COUNTY FEDERATION OF LABOR, AFL-CIO                                           CUQ+000000000+000000000+000000000+000000000+000000000+000000000+000000000+000159405+000000000+000000000+000000000+000000000+000000000+000000000+000000000+000000000+000000000+000000000+000000000+000000000+00000000009302011
C70003751MAINE STATE EMPLOYEES ASSOCIATION-SEIU LOCAL 1989                                         CUQ+000000000+000000000+000000000+000000000+000000000+000000000+000000000+000000000+000000000+000000000+000000000+000000000+000000000+000000000+000000000+000000000+000000000+000000000+000000000+000000000+00000000000000000
C70003538MARYLAND STATE TEACHERS ASSN                                                              CUQ+000000000+000000000+000000000+000000000+000000000+000000000+000000000+000000000+000000000+000000000+000000000+000000000+000000000+000000000+000000000+000000000+000000000+000000000+000000000+000000000+00000000000000000
C70002373MASSACHUSETTS TEACHERS ASSOCIATION                                                        CUQ+000000000+000000000+000000000+000000000+000000000+000000000+000000000+000000000+000000000+000000000+000000000+000000000+000000000+000000000+000000000+000000000+000000000+000000000+000000000+000000000+00000000000000000
C70004809MICHIGAN AFSCME COUNCIL 25                                                                CUQ+000000000+000000000+000000000+000000000+000000000+000000000+000000000+000000000+000000000+000000000+000000000+000000000+000000000+000000000+000000000+000000000+000000000+000000000+000000000+000000000+00000000000000000
C70005228MICHIGAN REGIONAL COUNCIL OF CARPENTERS                                                   CUQ+000000000+000000000+000000000+000000000+000000000+000000000+000000000+000000000+000000000+000000000+000000000+000000000+000000000+000000000+000000000+000000000+000000000+000000000+000000000+000000000+00000000000000000
C70004841MINNEAPOLIS REGIONAL LABOR FEDERATION AFL-CIO                                             CUQ+000000000+000000000+000000000+000000000+000000000+000000000+000000000+000000000+000000000+000000000+000000000+000000000+000000000+000000000+000000000+000000000+000000000+000000000+000000000+000000000+00000000000000000
C70003702MOUNTAIN AMERICA CREDIT UNION                                                             CUQ+000000000+000000000+000000000+000000000+000000000+000000000+000000000+000000000+000000000+000000000+000000000+000000000+000000000+000000000+000000000+000000000+000000000+000000000+000000000+000000000+00000000000000000
C70002761NARAL PRO-CHOICE AMERICA                                                                  CUQ+000000000+000000000+000000000+000000000+000000000+000000000+000000000+000000000+000000000+000000000+000000000+000000000+000000000+000000000+000000000+000000000+000000000+000000000+000000000+000000000+00000000000000000
C70005129NARAL PRO-CHOICE MINNESOTA                                                                CUQ+000000000+000000000+000000000+000000000+000000000+000000000+000000000+000000000+000000000+000000000+000000000+000000000+000000000+000000000+000000000+000000000+000000000+000000000+000000000+000000000+00000000000000000
C70005277NATIONAL ASSOCIATION FOR GUN RIGHTS                                                       CUQ+000000000+000000000+000000000+000000000+000000000+000000000+000000000+000000000+000000000+000000000+000000000+000000000+000000000+000000000+000000000+000000000+000000000+000000000+000000000+000000000+00000000000000000
C70001516NATIONAL ASSOCIATION OF LETTER CARRIERS                                                   CUQ+000000000+000000000+000000000+000000000+000000000+000000000+000000000+000000000+000000000+000000000+000000000+000000000+000000000+000000000+000000000+000000000+000000000+000000000+000000000+000000000+00000000000000000
C70002563NATIONAL ASSOCIATION OF REALTORS                                                          CUQ+000000000+000000000+000000000+000000000+000000000+000000000+000000000+000010508+000000000+000000000+000000000+000000000+000000000+000000000+000000000+000000000+000000000+000000000+000000000+000000000+00000000003312012
C70000492NATIONAL EDUCATION ASSOCIATION                                                            CUQ+000000000+000000000+000000000+000000000+000000000+000000000+000000000+000000000+000000000+000000000+000000000+000000000+000000000+000000000+000000000+000000000+000000000+000000000+000000000+000000000+00000000000000000
C70002969NATIONAL FEDERATION OF INDEPENDENT BUSINESS SAVE AMERICA'S FREE ENTERPRISE TRUST          CUQ+000000000+000000000+000000000+000000000+000000000+000000000+000000000+000000000+000000000+000000000+000000000+000000000+000000000+000000000+000000000+000000000+000000000+000000000+000000000+000000000+00000000000000000
C70005376NATIONAL NURSES UNITED                                                                    CUQ+000000000+000000000+000000000+000000000+000000000+000000000+000000000+000000000+000000000+000000000+000000000+000000000+000000000+000000000+000000000+000000000+000000000+000000000+000000000+000000000+00000000000000000
C70000716NATIONAL RIFLE ASSOCIATION INSTITUTE FOR LEGISLATIVE ACTION                               CUQ+000000000+000000000+000000000+000000000+000000000+000000000+000000000+000016066+000000000+000000000+000000000+000000000+000000000+000000000+000000000+000000000+000000000+000000000+000000000+000000000+00000000003312012
C70003298NATIONAL RIGHT TO LIFE COMMITTEE                                                          CUQ+000000000+000000000+000000000+000000000+000000000+000000000+000000000+000200401+000000000+000000000+000000000+000000000+000000000+000000000+000000000+000000000+000000000+000000000+000000000+000000000+00000000003312012
C70005202NEA-ALASKA INC                                                                            CUQ+000000000+000000000+000000000+000000000+000000000+000000000+000000000+000000000+000000000+000000000+000000000+000000000+000000000+000000000+000000000+000000000+000000000+000000000+000000000+000000000+00000000000000000
C70001359NEW YORK STATE PUBLIC EMPLOYEES FEDERATION                                                CUQ+000000000+000000000+000000000+000000000+000000000+000000000+000000000+000000000+000000000+000000000+000000000+000000000+000000000+000000000+000000000+000000000+000000000+000000000+000000000+000000000+00000000000000000
C70002258NEW YORK'S HEALTH AND HUMAN SERVICE UNION 1199/SEIU  AFL-CIO                              CUQ+000000000+000000000+000000000+000000000+000000000+000000000+000000000+000026845+000000000+000000000+000000000+000000000+000000000+000000000+000000000+000000000+000000000+000000000+000000000+000000000+00000000012312011
C70005426NORTH CAROLINA CREDIT UNION LEAGUE                                                        CUQ+000000000+000000000+000000000+000000000+000000000+000000000+000000000+000000000+000000000+000000000+000000000+000000000+000000000+000000000+000000000+000000000+000000000+000000000+000000000+000000000+00000000000000000
C70003363NORTH DAKOTA EDUCATION ASSOCIATION POLITICAL ACTION COMMITTEE FOR EDUCATION (NDEA-PACE)   CUQ+000000000+000000000+000000000+000000000+000000000+000000000+000000000+000000000+000000000+000000000+000000000+000000000+000000000+000000000+000000000+000000000+000000000+000000000+000000000+000000000+00000000000000000
C70003272NORTHERN CALIFORNIA CARPENTERS REGIONAL COUNCIL                                           CUQ+000000000+000000000+000000000+000000000+000000000+000000000+000000000+000000000+000000000+000000000+000000000+000000000+000000000+000000000+000000000+000000000+000000000+000000000+000000000+000000000+00000000000000000
C70005178OHIO CIVIL SERVICE EMPLOYEES ASSN                                                         CUQ+000000000+000000000+000000000+000000000+000000000+000000000+000000000+000000000+000000000+000000000+000000000+000000000+000000000+000000000+000000000+000000000+000000000+000000000+000000000+000000000+00000000000000000
C70005350OHIO CREDIT UNION DEFENSE COALITION                                                       CUQ+000000000+000000000+000000000+000000000+000000000+000000000+000000000+000000000+000000000+000000000+000000000+000000000+000000000+000000000+000000000+000000000+000000000+000000000+000000000+000000000+00000000000000000
C70001292OHIO EDUCATION ASSN                                                                       CUQ+000000000+000000000+000000000+000000000+000000000+000000000+000000000+000000000+000000000+000000000+000000000+000000000+000000000+000000000+000000000+000000000+000000000+000000000+000000000+000000000+00000000000000000
C70004650OPEIU                                                                                     CUQ+000000000+000000000+000000000+000000000+000000000+000000000+000000000+000000900+000000000+000000000+000000000+000000000+000000000+000000000+000000000+000000000+000000000+000000000+000000000+000000000+00000000003312012
C70003546OREGON EDUCATION ASSOCIATION                                                              CUQ+000000000+000000000+000000000+000000000+000000000+000000000+000000000+000005747+000000000+000000000+000000000+000000000+000000000+000000000+000000000+000000000+000000000+000000000+000000000+000000000+00000000004242012
C70001946PENNSYLVANIA AFL-CIO                                                                      CUQ+000000000+000000000+000000000+000000000+000000000+000000000+000000000+000000000+000000000+000000000+000000000+000000000+000000000+000000000+000000000+000000000+000000000+000000000+000000000+000000000+00000000000000000
C70004916PENNSYLVANIA CREDIT UNION ASSOCIATION                                                     CUQ+000000000+000000000+000000000+000000000+000000000+000000000+000000000+000000000+000000000+000000000+000000000+000000000+000000000+000000000+000000000+000000000+000000000+000000000+000000000+000000000+00000000000000000
C70004858PENNSYLVANIA JOINT BOARD UNITE HERE                                                       CUQ+000000000+000000000+000000000+000000000+000000000+000000000+000000000+000000000+000000000+000000000+000000000+000000000+000000000+000000000+000000000+000000000+000000000+000000000+000000000+000000000+00000000000000000
C70003314PENNSYLVANIA STATE EDUCATION ASSOCIATION                                                  CUQ+000000000+000000000+000000000+000000000+000000000+000000000+000000000+000000000+000000000+000000000+000000000+000000000+000000000+000000000+000000000+000000000+000000000+000000000+000000000+000000000+00000000003312012
C70002977RIGHT TO LIFE OF MICHIGAN                                                                 CUQ+000000000+000000000+000000000+000000000+000000000+000000000+000000000+000000000+000000000+000000000+000000000+000000000+000000000+000000000+000000000+000000000+000000000+000000000+000000000+000000000+00000000000000000
C70004296SAN MATEO COUNTY CENTRAL LABOR COUNCIL                                                    CUQ+000000000+000000000+000000000+000000000+000000000+000000000+000000000+000000000+000000000+000000000+000000000+000000000+000000000+000000000+000000000+000000000+000000000+000000000+000000000+000000000+00000000000000000
C70005384SEALASKA CORPORATION                                                                      CUQ+000000000+000000000+000000000+000000000+000000000+000000000+000000000+000000000+000000000+000000000+000000000+000000000+000000000+000000000+000000000+000000000+000000000+000000000+000000000+000000000+00000000000000000
C70005145SEIU 1000                                                                                 CUQ+000000000+000000000+000000000+000000000+000000000+000000000+000000000+000000000+000000000+000000000+000000000+000000000+000000000+000000000+000000000+000000000+000000000+000000000+000000000+000000000+00000000000000000
C70004973SEIU HEALTHCARE 1199 NW                                                                   CUQ+000000000+000000000+000000000+000000000+000000000+000000000+000000000+000000000+000000000+000000000+000000000+000000000+000000000+000000000+000000000+000000000+000000000+000000000+000000000+000000000+00000000000000000
C70005368SEIU HEALTHCARE 775 NW QUALITY CARE COMMITTEE                                             CUQ+000000000+000000000+000000000+000000000+000000000+000000000+000000000+000000000+000000000+000000000+000000000+000000000+000000000+000000000+000000000+000000000+000000000+000000000+000000000+000000000+00000000000000000
C70004619SEIU ILLINOIS COUNCIL                                                                     CUQ+000000000+000000000+000000000+000000000+000000000+000000000+000000000+000000000+000000000+000000000+000000000+000000000+000000000+000000000+000000000+000000000+000000000+000000000+000000000+000000000+00000000000000000
C70004726SEIU LOCAL 503 OPEU                                                                       CUQ+000000000+000000000+000000000+000000000+000000000+000000000+000000000+000000000+000000000+000000000+000000000+000000000+000000000+000000000+000000000+000000000+000000000+000000000+000000000+000000000+00000000000000000
C70004965SEIU LOCAL 925                                                                            CUQ+000000000+000000000+000000000+000000000+000000000+000000000+000000000+000007816+000000000+000000000+000000000+000000000+000000000+000000000+000000000+000000000+000000000+000000000+000000000+000000000+00000000001242011
C70004866SEIU OREGON STATE COUNCIL                                                                 CUQ+000000000+000000000+000000000+000000000+000000000+000000000+000000000+000000000+000000000+000000000+000000000+000000000+000000000+000000000+000000000+000000000+000000000+000000000+000000000+000000000+00000000000000000
C70004486SEIU UNITED HEALTH CARE WORKERS WEST                                                      CUQ+000000000+000000000+000000000+000000000+000000000+000000000+000000000+000000000+000000000+000000000+000000000+000000000+000000000+000000000+000000000+000000000+000000000+000000000+000000000+000000000+00000000000000000
C70004023SEIU WA STATE COUNCIL                                                                     CUQ+000000000+000000000+000000000+000000000+000000000+000000000+000000000+000000000+000000000+000000000+000000000+000000000+000000000+000000000+000000000+000000000+000000000+000000000+000000000+000000000+00000000000000000
C70005392SERVICE EMPLOYEE INTERNATIONAL UNION LOCAL 1000                                           CUQ+000000000+000000000+000000000+000000000+000000000+000000000+000000000+000000000+000000000+000000000+000000000+000000000+000000000+000000000+000000000+000000000+000000000+000000000+000000000+000000000+00000000000000000
C70005400SERVICE EMPLOYEE INTERNATIONAL UNION LOCAL 1021                                           CUQ+000000000+000000000+000000000+000000000+000000000+000000000+000000000+000000000+000000000+000000000+000000000+000000000+000000000+000000000+000000000+000000000+000000000+000000000+000000000+000000000+00000000000000000
C70004601SERVICE EMPLOYEES INT'L UNION DISTRICT 1199                                               CUQ+000000000+000000000+000000000+000000000+000000000+000000000+000000000+000000000+000000000+000000000+000000000+000000000+000000000+000000000+000000000+000000000+000000000+000000000+000000000+000000000+00000000000000000
C70003124SERVICE EMPLOYEES INTERNATIONAL UNION                                                     CUQ+000000000+000000000+000000000+000000000+000000000+000000000+000000000+000000000+000000000+000000000+000000000+000000000+000000000+000000000+000000000+000000000+000000000+000000000+000000000+000000000+00000000000000000
C70005475SERVICE EMPLOYEES INTERNATIONAL UNION HEALTH CARE WISCONSIN                               CUQ+000000000+000000000+000000000+000000000+000000000+000000000+000000000+000015994+000000000+000000000+000000000+000000000+000000000+000000000+000000000+000000000+000000000+000000000+000000000+000000000+00000000001312011
C70005459SERVICE EMPLOYEES INTERNATIONAL UNION LOCAL 1877                                          CUQ+000000000+000000000+000000000+000000000+000000000+000000000+000000000+000000000+000000000+000000000+000000000+000000000+000000000+000000000+000000000+000000000+000000000+000000000+000000000+000000000+00000000000000000
C70005319SHEE ATIKA INCORPORATED                                                                   CUQ+000000000+000000000+000000000+000000000+000000000+000000000+000000000+000000000+000000000+000000000+000000000+000000000+000000000+000000000+000000000+000000000+000000000+000000000+000000000+000000000+00000000000000000
C70005210SHEET METAL WORKERS LOCAL 18                                                              CUQ+000000000+000000000+000000000+000000000+000000000+000000000+000000000+000000000+000000000+000000000+000000000+000000000+000000000+000000000+000000000+000000000+000000000+000000000+000000000+000000000+00000000000000000
C70001318SIERRA CLUB                                                                               CUQ+000000000+000000000+000000000+000000000+000000000+000000000+000000000+000000000+000000000+000000000+000000000+000000000+000000000+000000000+000000000+000000000+000000000+000000000+000000000+000000000+00000000000000000
C70005293SOUTHWEST COMMUNITY FEDERAL CREDIT UNION                                                  CUQ+000000000+000000000+000000000+000000000+000000000+000000000+000000000+000000000+000000000+000000000+000000000+000000000+000000000+000000000+000000000+000000000+000000000+000000000+000000000+000000000+00000000000000000
C70004403SOUTHWEST REGIONAL COUNCIL OF CARPENTERS                                                  CUQ+000000000+000000000+000000000+000000000+000000000+000000000+000000000+000000000+000000000+000000000+000000000+000000000+000000000+000000000+000000000+000000000+000000000+000000000+000000000+000000000+00000000000000000
C70004676SUSAN B ANTHONY LIST INC                                                                  CUQ+000000000+000000000+000000000+000000000+000000000+000000000+000000000+000081122+000000000+000000000+000000000+000000000+000000000+000000000+000000000+000000000+000000000+000000000+000000000+000000000+00000000003312012
C70005244TEAMSTERS JOINT COUNCIL 25                                                                CUQ+000000000+000000000+000000000+000000000+000000000+000000000+000000000+000000000+000000000+000000000+000000000+000000000+000000000+000000000+000000000+000000000+000000000+000000000+000000000+000000000+00000000000000000
C70005152UAW NATIONAL CAP                                                                          CUQ+000000000+000000000+000000000+000000000+000000000+000000000+000000000+000000000+000000000+000000000+000000000+000000000+000000000+000000000+000000000+000000000+000000000+000000000+000000000+000000000+00000000000000000
C70004882UAW REGION 1 CAP                                                                          CUQ+000000000+000000000+000000000+000000000+000000000+000000000+000000000+000000000+000000000+000000000+000000000+000000000+000000000+000000000+000000000+000000000+000000000+000000000+000000000+000000000+00000000000000000
C70005160UAW REGION 1A CAP                                                                         CUQ+000000000+000000000+000000000+000000000+000000000+000000000+000000000+000000000+000000000+000000000+000000000+000000000+000000000+000000000+000000000+000000000+000000000+000000000+000000000+000000000+00000000000000000
C70004114UNITE HERE                                                                                CUQ+000000000+000000000+000000000+000000000+000000000+000000000+000000000+000000000+000000000+000000000+000000000+000000000+000000000+000000000+000000000+000000000+000000000+000000000+000000000+000000000+00000000000000000
C70005111UNITE HERE LOCAL 1                                                                        CUQ+000000000+000000000+000000000+000000000+000000000+000000000+000000000+000000000+000000000+000000000+000000000+000000000+000000000+000000000+000000000+000000000+000000000+000000000+000000000+000000000+00000000000000000
C70004999UNITE HERE LOCAL 49                                                                       CUQ+000000000+000000000+000000000+000000000+000000000+000000000+000000000+000000000+000000000+000000000+000000000+000000000+000000000+000000000+000000000+000000000+000000000+000000000+000000000+000000000+00000000000000000
C70004734UNITE HERE LOCAL 5                                                                        CUQ+000000000+000000000+000000000+000000000+000000000+000000000+000000000+000000000+000000000+000000000+000000000+000000000+000000000+000000000+000000000+000000000+000000000+000000000+000000000+000000000+00000000000000000
C70004767UNITE HERE LOCAL 54                                                                       CUQ+000000000+000000000+000000000+000000000+000000000+000000000+000000000+000000000+000000000+000000000+000000000+000000000+000000000+000000000+000000000+000000000+000000000+000000000+000000000+000000000+00000000000000000
C70005020UNITE HERE! SOUTHERN REGIONAL JOINT BOARD                                                 CUQ+000000000+000000000+000000000+000000000+000000000+000000000+000000000+000000000+000000000+000000000+000000000+000000000+000000000+000000000+000000000+000000000+000000000+000000000+000000000+000000000+00000000000000000
C70004361UNITED BROTHERHOOD OF CARPENTERS AND JOINERS OF AMERICA                                   CUQ+000000000+000000000+000000000+000000000+000000000+000000000+000000000+000000000+000000000+000000000+000000000+000000000+000000000+000000000+000000000+000000000+000000000+000000000+000000000+000000000+00000000000000000
C70003645UNITED FOOD & COMMERCIAL WORKERS INTERNATIONAL UNION                                      CUQ+000000000+000000000+000000000+000000000+000000000+000000000+000000000+000000000+000000000+000000000+000000000+000000000+000000000+000000000+000000000+000000000+000000000+000000000+000000000+000000000+00000000000000000
C70005194UNITED FOOD AND COMMERCIAL WORKERS UNION LOCAL 21                                         CUQ+000000000+000000000+000000000+000000000+000000000+000000000+000000000+000000000+000000000+000000000+000000000+000000000+000000000+000000000+000000000+000000000+000000000+000000000+000000000+000000000+00000000000000000
C70005137UNITED FOOD AND COMMERCIAL WORKERS UNION LOCAL 400                                        CUQ+000000000+000000000+000000000+000000000+000000000+000000000+000000000+000017529+000000000+000000000+000000000+000000000+000000000+000000000+000000000+000000000+000000000+000000000+000000000+000000000+00000000001282011
C70005095UNITED NURSES ASSOCIATIONS OF CALIFORNIA/UNION OF HEALTH CARE PROFESSIONALS               CUQ+000000000+000000000+000000000+000000000+000000000+000000000+000000000+000000000+000000000+000000000+000000000+000000000+000000000+000000000+000000000+000000000+000000000+000000000+000000000+000000000+00000000000000000
C70000666UNITED STEELWORKERS OF AMERICA                                                            CUQ+000000000+000000000+000000000+000000000+000000000+000000000+000000000+000000703+000000000+000000000+000000000+000000000+000000000+000000000+000000000+000000000+000000000+000000000+000000000+000000000+00000000003312012
C70001409WISCONSIN EDUCATION ASSOCIATION COUNCIL                                                   CUQ+000000000+000000000+000000000+000000000+000000000+000000000+000000000+000000000+000000000+000000000+000000000+000000000+000000000+000000000+000000000+000000000+000000000+000000000+000000000+000000000+00000000000000000
C70004981WORKING AMERICA                                                                           CUQ+000000000+000000000+000000000+000000000+000000000+000000000+000000000+000016835+000000000+000000000+000000000+000000000+000000000+000000000+000000000+000000000+000000000+000000000+000000000+000000000+00000000003152012
C00523050ALABAMA DELEGATE COMMITTEE                                                                DUQ+000000000+000000000+000000000+000000000+000000000+000000000+000000000+000000000+000000000+000000000+000000000+000000000+000000000+000000000+000000000+000000000+000000000+000000000+000000000+000000000+00000000000000000
C00513069CALIFORNIA 2012 GOP DELEGATION                                                            DUM+000032400+000000000+000032400+000000000+000000000+000000000+000000000+000004309+000000000+000000000+000000000+000000000+000000000+000000000+000028091+000000000+000000000+000000000+000000000+000000000+00000000005312012
C00505107COMMITTEE TO ELECT DELEGATES TN                                                           DUT+000011000+000000000+000011000+000000000+000000000+000000000+000000000+000011000+000000000+000000000+000000000+000000000+000000000+000000000+000000000+000000000+000000000+000000000+000000000+000000000+00000000002222012
C00448597DELEGATES FOR RON PAUL FOR VICE PRESIDENT                                                 DUQ+000000000+000000000+000000000+000000000+000000000+000000000+000000000+000000000+000000000+000000000+000000000+000000000+000000000+000000000+000000000+000000000+000000000+000000000+000000000+000000000+00000000000000000
C00443317OBAMA PRINCE GEORGE'S COUNTY DELEGATE COMMITTEE                                           DUQ+000000000+000000000+000000000+000000000+000000000+000000000+000000000+000000000+000000000+000000000+000000000+000000000+000000000+000000000+000000000+000000000+000000000+000000000+000000000+000000000+00000000000000000
C00519454PA 9TH CONGRESSIONAL DISTRICT DELEGATES COMMITTEE                                         DUT+000004932+000000000+000004932+000000000+000000000+000000000+000000000+000004932+000000000+000000000+000000000+000000000+000000000+000000000+000000000+000000000+000000000+000000000+000000000+000000000+00000000005182012
C00502708ROMNEY DELEGATE COMMITTEE                                                                 DUT+000005900+000000000+000005800+000000000+000000000+000000000+000000000+000000000+000000000+000000000+000000000+000000000+000000000+000000000+000005900+000000000+000000000+000000000+000000000+000000000+00000000001312012
C30001515ACCOUNTABLE AMERICA INC                                                                   EUQ+000000000+000000000+000000000+000000000+000000000+000000000+000000000+000000000+000000000+000000000+000000000+000000000+000000000+000000000+000000000+000000000+000000000+000000000+000000000+000000000+00000000000000000
C30001648AMERICAN ACTION NETWORK                                                                   EUQ+000000000+000000000+000000000+000000000+000000000+000000000+000000000+000000000+000000000+000000000+000000000+000000000+000000000+000000000+000000000+000000000+000000000+000000000+000000000+000000000+00000000000000000
C30001952AMERICAN CONSERVATIVE UNION                                                               EUQ+000000000+000000000+000000000+000000000+000000000+000000000+000000000+000000000+000000000+000000000+000000000+000000000+000000000+000000000+000000000+000000000+000000000+000000000+000000000+000000000+00000000000000000
C30000798AMERICAN FEDERATION OF STATE, COUNTY AND MUNICIPAL EMPLOYEES, AFL-CIO                     EUQ+000000000+000000000+000000000+000000000+000000000+000000000+000000000+000000000+000000000+000000000+000000000+000000000+000000000+000000000+000000000+000000000+000000000+000000000+000000000+000000000+00000000000000000
C30001028AMERICAN FUTURE FUND                                                                      EUQ+000000000+000000000+000000000+000000000+000000000+000000000+000000000+000000000+000000000+000000000+000000000+000000000+000000000+000000000+000000000+000000000+000000000+000000000+000000000+000000000+00000000000000000
C30001788AMERICAN HOSPITAL ASSOCIATION                                                             EUQ+000000000+000000000+000000000+000000000+000000000+000000000+000000000+000000000+000000000+000000000+000000000+000000000+000000000+000000000+000000000+000000000+000000000+000000000+000000000+000000000+00000000000000000
C30001531AMERICAN PUBLIC POLICY COMMITTEE                                                          EUQ+000000000+000000000+000000000+000000000+000000000+000000000+000000000+000000000+000000000+000000000+000000000+000000000+000000000+000000000+000000000+000000000+000000000+000000000+000000000+000000000+00000000000000000
C30001119AMERICAN RIGHTS AT WORK                                                                   EUQ+000000000+000000000+000000000+000000000+000000000+000000000+000000000+000000000+000000000+000000000+000000000+000000000+000000000+000000000+000000000+000000000+000000000+000000000+000000000+000000000+00000000000000000
C30001903AMERICANS FOR COMMON SENSE SOLUTIONS                                                      EUQ+000000000+000000000+000000000+000000000+000000000+000000000+000000000+000000000+000000000+000000000+000000000+000000000+000000000+000000000+000000000+000000000+000000000+000000000+000000000+000000000+00000000000000000
C30001135AMERICANS FOR JOB SECURITY                                                                EUQ+000000000+000000000+000000000+000000000+000000000+000000000+000000000+000000000+000000000+000000000+000000000+000000000+000000000+000000000+000000000+000000000+000000000+000000000+000000000+000000000+00000000000000000
C30001051AMERICANS FOR PROSPERITY                                                                  EUQ+000000000+000000000+000000000+000000000+000000000+000000000+000000000+000000000+000000000+000000000+000000000+000000000+000000000+000000000+000000000+000000000+000000000+000000000+000000000+000000000+00000000000000000
C30001960AMERICANS FOR PROSPERITY                                                                  EUQ+000000000+000000000+000000000+000000000+000000000+000000000+000000000+000000000+000000000+000000000+000000000+000000000+000000000+000000000+000000000+000000000+000000000+000000000+000000000+000000000+00000000000000000
C30001622AMERICANS FOR WORKING FAMILIES                                                            EUQ+000000000+000000000+000000000+000000000+000000000+000000000+000000000+000000000+000000000+000000000+000000000+000000000+000000000+000000000+000000000+000000000+000000000+000000000+000000000+000000000+00000000000000000
C30001853AMERICANS UNITED FOR SAFE STREETS                                                         EUQ+000000000+000000000+000000000+000000000+000000000+000000000+000000000+000000000+000000000+000000000+000000000+000000000+000000000+000000000+000000000+000000000+000000000+000000000+000000000+000000000+00000000000000000
C30001549ARKANSANS FOR CHANGE                                                                      EUQ+000000000+000000000+000000000+000000000+000000000+000000000+000000000+000000000+000000000+000000000+000000000+000000000+000000000+000000000+000000000+000000000+000000000+000000000+000000000+000000000+00000000000000000
C30001739BLUEGREEN ALLIANCE                                                                        EUQ+000000000+000000000+000000000+000000000+000000000+000000000+000000000+000000000+000000000+000000000+000000000+000000000+000000000+000000000+000000000+000000000+000000000+000000000+000000000+000000000+00000000000000000
C30000145BRING OHIO BACK                                                                           EUQ+000000000+000000000+000000000+000000000+000000000+000000000+000000000+000000000+000000000+000000000+000000000+000000000+000000000+000000000+000000000+000000000+000000000+000000000+000000000+000000000+00000000000000000
C30000814CALIFORNIA NURSES ASSOCIATION/NATIONAL NURSES ORGANIZING COMMITTEE                        EUQ+000000000+000000000+000000000+000000000+000000000+000000000+000000000+000000000+000000000+000000000+000000000+000000000+000000000+000000000+000000000+000000000+000000000+000000000+000000000+000000000+00000000000000000
C30001580CALIFORNIANS FOR A BALANCED BUDGET AND BETTER ECONOMY                                     EUQ+000000000+000000000+000000000+000000000+000000000+000000000+000000000+000000000+000000000+000000000+000000000+000000000+000000000+000000000+000000000+000000000+000000000+000000000+000000000+000000000+00000000000000000
C30000160CAMPAIGN MONEY WATCH                                                                      EUQ+000000000+000000000+000000000+000000000+000000000+000000000+000000000+000000000+000000000+000000000+000000000+000000000+000000000+000000000+000000000+000000000+000000000+000000000+000000000+000000000+00000000000000000
C30001770CARE MEMBERSHIP ORGANIZATION                                                              EUQ+000000000+000000000+000000000+000000000+000000000+000000000+000000000+000000000+000000000+000000000+000000000+000000000+000000000+000000000+000000000+000000000+000000000+000000000+000000000+000000000+00000000000000000
C30001747CENTER FOR INDIVIDUAL FREEDOM                                                             EUQ+000000000+000000000+000000000+000000000+000000000+000000000+000000000+000000000+000000000+000000000+000000000+000000000+000000000+000000000+000000000+000000000+000000000+000000000+000000000+000000000+00000000000000000
C30001259CITIZENS FOR STRENGTH AND SECURITY                                                        EUQ+000000000+000000000+000000000+000000000+000000000+000000000+000000000+000000000+000000000+000000000+000000000+000000000+000000000+000000000+000000000+000000000+000000000+000000000+000000000+000000000+00000000000000000
C30000970COLORADO COUNTS                                                                           EUQ+000000000+000000000+000000000+000000000+000000000+000000000+000000000+000000000+000000000+000000000+000000000+000000000+000000000+000000000+000000000+000000000+000000000+000000000+000000000+000000000+00000000000000000
C30001812COLORADO PROGRESSIVE ACTION                                                               EUQ+000000000+000000000+000000000+000000000+000000000+000000000+000000000+000000000+000000000+000000000+000000000+000000000+000000000+000000000+000000000+000000000+000000000+000000000+000000000+000000000+00000000000000000
C30001697COMMITTEE FOR RESPONSIBLE POLITICS                                                        EUQ+000000000+000000000+000000000+000000000+000000000+000000000+000000000+000000000+000000000+000000000+000000000+000000000+000000000+000000000+000000000+000000000+000000000+000000000+000000000+000000000+00000000000000000
C30001457COMMON SENSE ISSUES INC                                                                   EUQ+000000000+000000000+000000000+000000000+000000000+000000000+000000000+000000000+000000000+000000000+000000000+000000000+000000000+000000000+000000000+000000000+000000000+000000000+000000000+000000000+00000000000000000
C30001895COOK INLET SPORTFISHING CAUCUS                                                            EUQ+000000000+000000000+000000000+000000000+000000000+000000000+000000000+000000000+000000000+000000000+000000000+000000000+000000000+000000000+000000000+000000000+000000000+000000000+000000000+000000000+00000000000000000
C30001655CROSSROADS GRASSROOTS POLICY STRATEGIES                                                   EUQ+000000000+000000000+000000000+000000000+000000000+000000000+000000000+000000000+000000000+000000000+000000000+000000000+000000000+000000000+000000000+000000000+000000000+000000000+000000000+000000000+00000000000000000
C30001713CSS ACTION FUND INC.                                                                      EUQ+000000000+000000000+000000000+000000000+000000000+000000000+000000000+000000000+000000000+000000000+000000000+000000000+000000000+000000000+000000000+000000000+000000000+000000000+000000000+000000000+00000000000000000
C30001556CWA NON-FEDERAL SEPARATE SEGREGATED FUND                                                  EUQ+000000000+000000000+000000000+000000000+000000000+000000000+000000000+000000000+000000000+000000000+000000000+000000000+000000000+000000000+000000000+000000000+000000000+000000000+000000000+000000000+00000000000000000
C30001184Catholics United                                                                          EUQ+000000000+000000000+000000000+000000000+000000000+000000000+000000000+000000000+000000000+000000000+000000000+000000000+000000000+000000000+000000000+000000000+000000000+000000000+000000000+000000000+00000000000000000
C30001911EMERGENCY COMMITTEE FOR ISRAEL                                                            EUQ+000000000+000000000+000000000+000000000+000000000+000000000+000000000+000000000+000000000+000000000+000000000+000000000+000000000+000000000+000000000+000000000+000000000+000000000+000000000+000000000+00000000000000000
C30001523EMILY'S LIST NON-FEDERAL                                                                  EUQ+000000000+000000000+000000000+000000000+000000000+000000000+000000000+000000000+000000000+000000000+000000000+000000000+000000000+000000000+000000000+000000000+000000000+000000000+000000000+000000000+00000000000000000
C30001929ENDING SPENDING INC                                                                       EUQ+000000000+000000000+000000000+000000000+000000000+000000000+000000000+000000000+000000000+000000000+000000000+000000000+000000000+000000000+000000000+000000000+000000000+000000000+000000000+000000000+00000000000000000
C30001846ENTERPRISE FREEDOM ACTION COMMITTEE                                                       EUQ+000000000+000000000+000000000+000000000+000000000+000000000+000000000+000000000+000000000+000000000+000000000+000000000+000000000+000000000+000000000+000000000+000000000+000000000+000000000+000000000+00000000000000000
C30000954ENVIRONMENTAL DEFENSE ACTION FUND                                                         EUQ+000000000+000000000+000000000+000000000+000000000+000000000+000000000+000000000+000000000+000000000+000000000+000000000+000000000+000000000+000000000+000000000+000000000+000000000+000000000+000000000+00000000000000000
C30001838FAITH & FREEDOM COALITION                                                                 EUQ+000000000+000000000+000000000+000000000+000000000+000000000+000000000+000000000+000000000+000000000+000000000+000000000+000000000+000000000+000000000+000000000+000000000+000000000+000000000+000000000+00000000000000000
C30000673FOCUS ON THE FAMILY ACTION                                                                EUQ+000000000+000000000+000000000+000000000+000000000+000000000+000000000+000000000+000000000+000000000+000000000+000000000+000000000+000000000+000000000+000000000+000000000+000000000+000000000+000000000+00000000000000000
C30001994FRAG OUT MARKETING, DLANY                                                                 EUQ+000000000+000000000+000000000+000000000+000000000+000000000+000000000+000000000+000000000+000000000+000000000+000000000+000000000+000000000+000000000+000000000+000000000+000000000+000000000+000000000+00000000000000000
C30001986FREEDOM PATH                                                                              EUQ+000000000+000000000+000000000+000000000+000000000+000000000+000000000+000000000+000000000+000000000+000000000+000000000+000000000+000000000+000000000+000000000+000000000+000000000+000000000+000000000+00000000000000000
C30000756FREEDOM'S WATCH INC                                                                       EUQ+000000000+000000000+000000000+000000000+000000000+000000000+000000000+000000000+000000000+000000000+000000000+000000000+000000000+000000000+000000000+000000000+000000000+000000000+000000000+000000000+00000000000000000
C30001879HISPANIC LEADERSHIP FUND                                                                  EUQ+000000000+000000000+000000000+000000000+000000000+000000000+000000000+000000000+000000000+000000000+000000000+000000000+000000000+000000000+000000000+000000000+000000000+000000000+000000000+000000000+00000000000000000
C30001572INDEPENDENT WOMEN'S VOICE                                                                 EUQ+000000000+000000000+000000000+000000000+000000000+000000000+000000000+000000000+000000000+000000000+000000000+000000000+000000000+000000000+000000000+000000000+000000000+000000000+000000000+000000000+00000000000000000
C30001689JUDICIAL CRISIS NETWORK                                                                   EUQ+000000000+000000000+000000000+000000000+000000000+000000000+000000000+000000000+000000000+000000000+000000000+000000000+000000000+000000000+000000000+000000000+000000000+000000000+000000000+000000000+00000000000000000
C30001796KENNEDY, WILLIAM BEAN JR                                                                  EUQ+000000000+000000000+000000000+000000000+000000000+000000000+000000000+000000000+000000000+000000000+000000000+000000000+000000000+000000000+000000000+000000000+000000000+000000000+000000000+000000000+00000000000000000
C30001499LABORERS' LOCAL 341                                                                       EUQ+000000000+000000000+000000000+000000000+000000000+000000000+000000000+000000000+000000000+000000000+000000000+000000000+000000000+000000000+000000000+000000000+000000000+000000000+000000000+000000000+00000000000000000
C30001267MAJORITY AMERICA POLITICAL ORG                                                            EUQ+000000000+000000000+000000000+000000000+000000000+000000000+000000000+000000000+000000000+000000000+000000000+000000000+000000000+000000000+000000000+000000000+000000000+000000000+000000000+000000000+00000000000000000
C30001820MI FAMILIA VOTA CIVIC PARTICIPATION CAMPAIGN                                              EUQ+000000000+000000000+000000000+000000000+000000000+000000000+000000000+000000000+000000000+000000000+000000000+000000000+000000000+000000000+000000000+000000000+000000000+000000000+000000000+000000000+00000000000000000
C30001507MICHAEL STOLLERY                                                                          EUQ+000000000+000000000+000000000+000000000+000000000+000000000+000000000+000000000+000000000+000000000+000000000+000000000+000000000+000000000+000000000+000000000+000000000+000000000+000000000+000000000+00000000000000000
C30001887MICHIGAN CITIZENS FOR FISCAL RESPONSIBILITY                                               EUQ+000000000+000000000+000000000+000000000+000000000+000000000+000000000+000000000+000000000+000000000+000000000+000000000+000000000+000000000+000000000+000000000+000000000+000000000+000000000+000000000+00000000000000000
C30001762MICHIGAN CREDIT UNION LEAGUE                                                              EUQ+000000000+000000000+000000000+000000000+000000000+000000000+000000000+000000000+000000000+000000000+000000000+000000000+000000000+000000000+000000000+000000000+000000000+000000000+000000000+000000000+00000000000000000
C30001663NATIONAL ASSOCIATION OF MANUFACTURERS                                                     EUQ+000000000+000000000+000000000+000000000+000000000+000000000+000000000+000000000+000000000+000000000+000000000+000000000+000000000+000000000+000000000+000000000+000000000+000000000+000000000+000000000+00000000000000000
C30000848NATIONAL EDUCATION ASSOCIATION                                                            EUQ+000000000+000000000+000000000+000000000+000000000+000000000+000000000+000000000+000000000+000000000+000000000+000000000+000000000+000000000+000000000+000000000+000000000+000000000+000000000+000000000+00000000000000000
C30001317NATIONAL FEDERATION OF INDEPENDENT BUSINESS                                               EUQ+000000000+000000000+000000000+000000000+000000000+000000000+000000000+000000000+000000000+000000000+000000000+000000000+000000000+000000000+000000000+000000000+000000000+000000000+000000000+000000000+00000000000000000
C30001614NEW LEADERSHIP IN COLORADO                                                                EUQ+000000000+000000000+000000000+000000000+000000000+000000000+000000000+000000000+000000000+000000000+000000000+000000000+000000000+000000000+000000000+000000000+000000000+000000000+000000000+000000000+00000000000000000
C30000368OCEAN CHAMPIONS VOTER FUND                                                                EUQ+000000000+000000000+000000000+000000000+000000000+000000000+000000000+000000000+000000000+000000000+000000000+000000000+000000000+000000000+000000000+000000000+000000000+000000000+000000000+000000000+00000000000000000
C30001598PARTNERSHIP FOR AMERICAN'S FUTURE                                                         EUQ+000000000+000000000+000000000+000000000+000000000+000000000+000000000+000000000+000000000+000000000+000000000+000000000+000000000+000000000+000000000+000000000+000000000+000000000+000000000+000000000+00000000000000000
C30001127PATRIOT MAJORITY                                                                          EUQ+000000000+000000000+000000000+000000000+000000000+000000000+000000000+000000000+000000000+000000000+000000000+000000000+000000000+000000000+000000000+000000000+000000000+000000000+000000000+000000000+00000000000000000
C30001705PATRIOT MAJORITY USA FUND                                                                 EUQ+000000000+000000000+000000000+000000000+000000000+000000000+000000000+000000000+000000000+000000000+000000000+000000000+000000000+000000000+000000000+000000000+000000000+000000000+000000000+000000000+00000000000000000
C30001218PATRIOT MAJORITY WEST                                                                     EUQ+000000000+000000000+000000000+000000000+000000000+000000000+000000000+000000000+000000000+000000000+000000000+000000000+000000000+000000000+000000000+000000000+000000000+000000000+000000000+000000000+00000000000000000
C30001978PATRIOTIC VETERANS, INC                                                                   EUQ+000000000+000000000+000000000+000000000+000000000+000000000+000000000+000000000+000000000+000000000+000000000+000000000+000000000+000000000+000000000+000000000+000000000+000000000+000000000+000000000+00000000000000000
C30001945PLANNED PARENTHOOD ACTION FUND INC.                                                       EUQ+000000000+000000000+000000000+000000000+000000000+000000000+000000000+000000000+000000000+000000000+000000000+000000000+000000000+000000000+000000000+000000000+000000000+000000000+000000000+000000000+00000000000000000
C30001234RIGHTCHANGE.COM, INC                                                                      EUQ+000000000+000000000+000000000+000000000+000000000+000000000+000000000+000000000+000000000+000000000+000000000+000000000+000000000+000000000+000000000+000000000+000000000+000000000+000000000+000000000+00000000000000000
C30001937RON VINCENT FOR CONGRESS COMMITTEE, VINCENT J                                             EUQ+000000000+000000000+000000000+000000000+000000000+000000000+000000000+000000000+000000000+000000000+000000000+000000000+000000000+000000000+000000000+000000000+000000000+000000000+000000000+000000000+00000000000000000
C30001606SEND HARRY PACKING                                                                        EUQ+000000000+000000000+000000000+000000000+000000000+000000000+000000000+000000000+000000000+000000000+000000000+000000000+000000000+000000000+000000000+000000000+000000000+000000000+000000000+000000000+00000000000000000
C30001861SET IT STRAIGHT                                                                           EUQ+000000000+000000000+000000000+000000000+000000000+000000000+000000000+000000000+000000000+000000000+000000000+000000000+000000000+000000000+000000000+000000000+000000000+000000000+000000000+000000000+00000000000000000
C30000921SUSAN B ANTHONY LIST INC                                                                  EUQ+000000000+000000000+000000000+000000000+000000000+000000000+000000000+000000000+000000000+000000000+000000000+000000000+000000000+000000000+000000000+000000000+000000000+000000000+000000000+000000000+00000000000000000
C30001671THE 60 PLUS ASSOCIATION                                                                   EUQ+000000000+000000000+000000000+000000000+000000000+000000000+000000000+000000000+000000000+000000000+000000000+000000000+000000000+000000000+000000000+000000000+000000000+000000000+000000000+000000000+00000000000000000
C30001192UNITED FOOD & COMMERCIAL WORKER INTL UNION                                                EUQ+000000000+000000000+000000000+000000000+000000000+000000000+000000000+000000000+000000000+000000000+000000000+000000000+000000000+000000000+000000000+000000000+000000000+000000000+000000000+000000000+00000000000000000
C30001101US CHAMBER OF COMMERCE                                                                    EUQ+000000000+000000000+000000000+000000000+000000000+000000000+000000000+000000000+000000000+000000000+000000000+000000000+000000000+000000000+000000000+000000000+000000000+000000000+000000000+000000000+00000000000000000
C30001275VOTEVETS.ORG ACTION FUND                                                                  EUQ+000000000+000000000+000000000+000000000+000000000+000000000+000000000+000000000+000000000+000000000+000000000+000000000+000000000+000000000+000000000+000000000+000000000+000000000+000000000+000000000+00000000000000000
C30001721WEST VIRGINIA CONSERVATIVE FOUNDATION INC.                                                EUQ+000000000+000000000+000000000+000000000+000000000+000000000+000000000+000000000+000000000+000000000+000000000+000000000+000000000+000000000+000000000+000000000+000000000+000000000+000000000+000000000+00000000000000000
C30001804WEST VIRGINIANS FOR LIFE INC.                                                             EUQ+000000000+000000000+000000000+000000000+000000000+000000000+000000000+000000000+000000000+000000000+000000000+000000000+000000000+000000000+000000000+000000000+000000000+000000000+000000000+000000000+00000000000000000
C30001416WINNING MESSAGE ACTION FUND                                                               EUQ+000000000+000000000+000000000+000000000+000000000+000000000+000000000+000000000+000000000+000000000+000000000+000000000+000000000+000000000+000000000+000000000+000000000+000000000+000000000+000000000+00000000000000000
C30001754WOMEN'S VOICES WOMEN VOTE ACTION FUND                                                     EUQ+000000000+000000000+000000000+000000000+000000000+000000000+000000000+000000000+000000000+000000000+000000000+000000000+000000000+000000000+000000000+000000000+000000000+000000000+000000000+000000000+00000000000000000
C30001564WORKERS FOR A BETTER HAWAII                                                               EUQ+000000000+000000000+000000000+000000000+000000000+000000000+000000000+000000000+000000000+000000000+000000000+000000000+000000000+000000000+000000000+000000000+000000000+000000000+000000000+000000000+00000000000000000
C00469908ALEXANDER AND REHBERG FOR CONGRESS                                                        HJT+000000000+000000000+000000000+000000000+000000000+000000000+000000000+000000000+000000000+000000000+000000000+000000000+000000000+000000000+000000000+000000000+000000000+000000000+000000000+000000000+00000000000000000
C00511410AMERICAN DEMOCRACY FUND                                                                   HJT+000015000+000000000+000002500+000012500+000000000+000000000+000000000+000015000+000014300+000000000+000000000+000000000+000000000+000000000+000000000+000000000+000000000+000000000+000000000+000000000+00000000004302012
C00512988BARRASSO-PRICE COMMITTEE                                                                  HJQ+000008650+000000000+000006150+000002500+000000000+000000000+000000000+000000354+000000000+000000000+000000000+000000000+000000000+000000000+000008296+000000000+000000000+000000000+000000000+000000000+00000000003312012
C00514505BASS CHABOT COMMITTEE                                                                     HJQ+000000000+000000000+000000000+000000000+000000000+000000000+000000000+000000000+000000000+000000000+000000000+000000000+000000000+000000000+000000000+000000000+000000000+000000000+000000000+000000000+00000000003312012
C00522755BENISHEK BUERKLE COMMITTEE                                                                HJQ+000000000+000000000+000000000+000000000+000000000+000000000+000000000+000000000+000000000+000000000+000000000+000000000+000000000+000000000+000000000+000000000+000000000+000000000+000000000+000000000+00000000000000000
C00519900BERA 2012 VICTORY FUND                                                                    HJQ+000035000+000000000+000030000+000005000+000000000+000000000+000000000+000000000+000000000+000000000+000000000+000000000+000000000+000000000+000035000+000000000+000000000+000000000+000000000+000000000+00000000005162012
C00519116BIGGERT-DOLD VICTORY COMMITTEE                                                            HJQ+000000000+000000000+000000000+000000000+000000000+000000000+000000000+000000000+000000000+000000000+000000000+000000000+000000000+000000000+000000000+000000000+000000000+000000000+000000000+000000000+00000000000000000
C00502260BLUE DOG VICTORY FUND                                                                     HJT+000000000+000000000+000000000+000000000+000000000+000000000+000000000+000000000+000000000+000000000+000000000+000000000+000000000+000000000+000000000+000000000+000000000+000000000+000000000+000000000+00000000002032012
C00486589BOXER/HALL 2010                                                                           HJT+000000000+000000000+000000000+000000000+000000000+000000000+000000000+000000000+000000000+000000000+000000000+000000000+000000000+000000000+000000000+000000000+000000000+000000000+000000000+000000000+00000000000000000
C00486597BOXER/OBERSTAR 2010                                                                       HJT+000000000+000000000+000000000+000000000+000000000+000000000+000000000+000002309+000002309+000000000+000000000+000000000+000000000+000002309+000000000+000000000+000000000+000000000+000000000+000000000+00000000002282011
C00502211BRALEY BROWN VICTORY FUND                                                                 HJT+000023611+000000000+000023611+000000000+000000000+000000000+000000000+000023611+000020173+000000000+000000000+000000000+000000000+000000000+000000000+000000000+000000000+000000000+000000000+000000000+00000000003312012
C00520650BROUN WEST COMMITTEE                                                                      HJQ+000000000+000000000+000000000+000000000+000000000+000000000+000000000+000000000+000000000+000000000+000000000+000000000+000000000+000000000+000000000+000000000+000000000+000000000+000000000+000000000+00000000000000000
C00502765CANSECO-FARENTHOLD VICTORY COMMITTEE                                                      HJQ+000048800+000000000+000046300+000002500+000000000+000000000+000000000+000046038+000035000+000000000+000000000+000000000+000000000+000000000+000002762+000000000+000000000+000000000+000000000+000000000+00000000003312012
C00501999CENTRAL FL CONGRESSIONAL FUND                                                             HJT+000021310+000000000+000021310+000000000+000000000+000000000+000000000+000021310+000018438+000000000+000000000+000000000+000000000+000000000+000000000+000000000+000000000+000000000+000000000+000000000+00000000005292012
C00487561COLORADO DEMOCRATIC CONGRESSIONAL COMMITTEE                                               HJQ+000000000+000000000+000000000+000000000+000000000+000000000+000000000+000001488+000000000+000000000+000000000+000000000+000000000+000002859+000001371+000000000+000000000+000000000+000000000+000000000+00000000003312012
C00515569CPE VICTORY FUND (CALIFORNIANS FOR A PROSPEROUS ECONOMY VF)                               HJQ+000036500+000000000+000000500+000036000+000000000+000000000+000000000+000036403+000033000+000000000+000000000+000000000+000000000+000000000+000000096+000000000+000000000+000000000+000000000+000000000+00000000005162012
C00502757DEFEND THE MAJORITY FUND                                                                  HJQ+000000000+000000000+000000000+000000000+000000000+000000000+000000000+000000000+000000000+000000000+000000000+000000000+000000000+000000000+000000000+000000000+000000000+000000000+000000000+000000000+00000000003312012
C00487322FARR - COSTA 2010                                                                         HJT+000000000+000000000+000000000+000000000+000000000+000000000+000000000+000000000+000000000+000000000+000000000+000000000+000000000+000000000+000000000+000000000+000000000+000000000+000000000+000000000+00000000000000000
C00510271FEBRUARY 7TH JFC                                                                          HJQ+000000000+000000000+000000000+000000000+000000000+000000000+000000000+000000000+000000000+000000000+000000000+000000000+000000000+000000000+000000000+000000000+000000000+000000000+000000000+000000000+00000000003312012
C00521955FITZPATRICK-MEEHAN-RUNYAN VICTORY COMMITTEE                                               HJQ+000000000+000000000+000000000+000000000+000000000+000000000+000000000+000000000+000000000+000000000+000000000+000000000+000000000+000000000+000000000+000000000+000000000+000000000+000000000+000000000+00000000000000000
C00499889FLORIDA YOUNG GUNS VICTORY FUND ADAMS NUGENT ROSS SOUTHERLAND WEBSTER WEST                HJT+000053778+000000000+000024910+000028000+000000000+000000000+000000000+000053778+000035850+000000000+000000000+000000000+000000000+000000000+000000000+000000000+000000000+000000000+000000000+000000000+00000000001062012
C00493783FRESHMAN AGRICULTURAL REPUBLICAN MEMBERS TRUST AKA FARM TRUST                             HJQ+000256200+000000000+000028950+000227250+000000000+000000000+000000000+000256150+000242598+000000000+000000000+000000000+000000000+000000000+000000050+000000000+000000000+000000000+000000000+000000000+00000000003312012
C00506824FRESHMAN CLASS JFC                                                                        HJQ+000055800+000008000+000000000+000047800+000000000+000000000+000000000+000052341+000032056+000000000+000000000+000000000+000000000+000000000+000003459+000000000+000000000+000000000+000000000+000000000+00000000003312012
C00496083FRESHMAN MAJORITY FUND                                                                    HJT+000046000+000000000+000039500+000006500+000000000+000000000+000000000+000046000+000040129+000000000+000000000+000000000+000000000+000000000+000000000+000000000+000000000+000000000+000000000+000000000+00000000012012011
C00471706FUND FOR EQUALITY                                                                         HJQ+000000000+000000000+000000000+000000000+000000000+000000000+000000000+000000240+000000000+000000000+000000000+000000000+000000000+000000585+000000345+000000000+000000000+000000000+000000000+000000000+00000000003312012
C00500777GARRETT/PAULSEN JOINT COMMITTEE                                                           HJT+000017500+000010000+000000000+000007500+000000000+000000000+000000000+000017500+000000000+000000000+000000000+000000000+000000000+000000000+000000000+000000000+000000000+000000000+000000000+000000000+00000000012162011
C00495663GEORGIA YOUNG GUNS VICTORY FUND (GRAVES, SCOTT, WOODALL)                                  HJT+000045300+000000000+000032050+000013250+000000000+000000000+000000000+000045300+000027811+000000000+000000000+000000000+000000000+000000000+000000000+000000000+000000000+000000000+000000000+000000000+00000000008252011
C00489583GOSAR SCHWEIKERT KELLY VICTORY COMMITTEE                                                  HJT+000000000+000000000+000000000+000000000+000000000+000000000+000000000+000000736+000000691+000000000+000000000+000000000+000000000+000000736+000000000+000000000+000000000+000000000+000000000+000000000+00000000006202011
C00511493GRAVES-WESTMORELAND JFC                                                                   HJT+000003778+000000778+000000000+000003000+000000000+000000000+000000000+000003778+000002027+000000000+000000000+000000000+000000000+000000000+000000000+000000000+000000000+000000000+000000000+000000000+00000000005042012
C00490748HOOSIER YOUNG GUNS VICTORY COMMITTEE                                                      HJT+000000000+000000000+000000000+000000000+000000000+000000000+000000000+000000000+000000000+000000000+000000000+000000000+000000000+000000000+000000000+000000000+000000000+000000000+000000000+000000000+00000000000000000
C00491597ILLINOIS HOUSE REPUBLICAN FRESHMEN                                                        HJT+000002000+000000000+000000000+000002000+000000000+000000000+000000000+000019275+000019275+000000000+000000000+000000000+000000000+000017275+000000000+000000000+000000000+000000000+000000000+000000000+00000000004162011
C00522573ISRAEL-NADLER VICTORY FUND                                                                HJQ+000000000+000000000+000000000+000000000+000000000+000000000+000000000+000000000+000000000+000000000+000000000+000000000+000000000+000000000+000000000+000000000+000000000+000000000+000000000+000000000+00000000000000000
C00487397LEADERSHIP FOR SEPA                                                                       HJQ+000000000+000000000+000000000+000000000+000000000+000000000+000000000+000000000+000000000+000000000+000000000+000000000+000000000+000000000+000002500+000000000+000000000+000000000+000000000+000000000+00000000003312012
C00483875LOS ANGELES CONSTITUTIONAL COALITION OF BILL CUSHING,DAVID MILLER,JOHN SMITH,STEPHEN SMITHHJT+000000000+000000000+000000000+000000000+000000000+000000000+000000000+000000209+000000000+000000185+000000000+000000000+000000000+000000209+000000000+000000000+000000000+000000000+000000000+000000000+00000000008052011
C00504142LUCAS-ROBERTS VICTORY COMMITTEE; THE                                                      HJQ+000058425+000000000+000040925+000017500+000000000+000000000+000000000+000055925+000053387+000000000+000000000+000000000+000000000+000000000+000002500+000000000+000000000+000000000+000000000+000000000+00000000003312012
C00492884LUCKY 13 JOINT FUNDRAISING COMMITTEE                                                      HJT+000114250+000000000+000009750+000104500+000000000+000000000+000000000+000114250+000104495+000000000+000000000+000000000+000000000+000000000+000000000+000000000+000000000+000000000+000000000+000000000+00000000012312011
C00499186MACKS' JOINT COMMITTEE                                                                    HJT+000000000+000000000+000000000+000000000+000000000+000000000+000000000+000000000+000000000+000000000+000000000+000000000+000000000+000000000+000000000+000000000+000000000+000000000+000000000+000000000+00000000011162011
C00493429MAJORITY MAKERS 2012                                                                      HJT+000018902+000000000+000018050+000000000+000000000+000000000+000000000+000018902+000013200+000000000+000000000+000000000+000000000+000000000+000000000+000000000+000000000+000000000+000000000+000000000+00000000005012012
C00493791MAJORITY VICTORY FUND (ADAMS, CANSECO, CRAWFORD, GUINTA, RIBBLE)                          HJT+000061200+000000000+000000200+000061000+000000000+000000000+000000000+000061200+000037903+000000000+000000000+000000000+000000000+000000000+000000000+000000000+000000000+000000000+000000000+000000000+00000000011182011
C00514240MAJORITY VICTORY FUND (BROOKS, FLEISCHMANN, HUELSKAMP, LABRADOR)                          HJQ+000010100+000000000+000000100+000010000+000000000+000000000+000000000+000010100+000006994+000000000+000000000+000000000+000000000+000000000+000000000+000000000+000000000+000000000+000000000+000000000+00000000006142012
C00489047MCDOWELL-MILES-SCHAUER 2010                                                               HJT+000000000+000000000+000000000+000000000+000000000+000000000+000000000+000000000+000000000+000000000+000000000+000000000+000000000+000000000+000000000+000000000+000000000+000000000+000000000+000000000+00000000000000000
C00498477MCMORRIS RODGERS WALDEN VICTORY COMMITTEE                                                 HJT+000002405+000001405+000001000+000000000+000000000+000000000+000000000+000002405+000000000+000000000+000000000+000000000+000000000+000000000+000000000+000000000+000000000+000000000+000000000+000000000+00000000012312011
C00502344MIDWEST VICTORY FUND                                                                      HJT+000001595+000000000+000001095+000000500+000000000+000000000+000000000+000001595+000000951+000000000+000000000+000000000+000000000+000000000+000000000+000000000+000000000+000000000+000000000+000000000+00000000012212011
C00489245MOVING FLORIDA FORWARD FUND                                                               HJT+000000000+000000000+000000000+000000000+000000000+000000000+000000000+000000000+000000000+000000000+000000000+000000000+000000000+000000000+000000000+000000000+000000000+000000000+000000000+000000000+00000000001312011
C00503326NEW YORK CONGRESSIONAL VICTORY COMMITTEE 2011                                             HJT+000456250+000000000+000456250+000000000+000000000+000000000+000000000+000456250+000398977+000000000+000000000+000000000+000000000+000000000+000000000+000000000+000000000+000000000+000000000+000000000+00000000003312012
C00521369OFF THE SIDELINES:IA-IL-FL                                                                HJQ+000000000+000000000+000000000+000000000+000000000+000000000+000000000+000000000+000000000+000000000+000000000+000000000+000000000+000000000+000000000+000000000+000000000+000000000+000000000+000000000+00000000000000000
C00491613OHIO FIVE; THE                                                                            HJT+000000000+000000000+000000000+000000000+000000000+000000000+000000000+000027996+000022671+000000000+000000000+000000000+000000000+000027996+000000000+000000000+000000000+000000000+000000000+000000000+00000000006302011
C00495242PA + 5 COMMITTEE                                                                          HJQ+000026500+000000000+000001500+000025000+000000000+000000000+000000000+000024000+000020678+000000000+000000000+000000000+000000000+000000000+000002500+000000000+000000000+000000000+000000000+000000000+00000000003312012
C00497156PATRIOT DAY 2011                                                                          HJT+000080500+000000000+000001500+000079000+000000000+000000000+000000000+000080500+000069555+000000000+000000000+000000000+000000000+000000000+000000000+000000000+000000000+000000000+000000000+000000000+00000000003312012
C00502252PATRIOT DAY II 2011                                                                       HJT+000123500+000000000+000010500+000113000+000000000+000000000+000000000+000123500+000113013+000000000+000000000+000000000+000000000+000000000+000000000+000000000+000000000+000000000+000000000+000000000+00000000003312012
C00511519PATRIOT DAY III                                                                           HJQ+000098500+000000000+000005000+000093500+000000000+000000000+000000000+000090771+000084896+000000000+000000000+000000000+000000000+000000000+000007729+000000000+000000000+000000000+000000000+000000000+00000000003312012
C00519744PATRIOT DAY IV                                                                            HJQ+000000000+000000000+000000000+000000000+000000000+000000000+000000000+000000000+000000000+000000000+000000000+000000000+000000000+000000000+000000000+000000000+000000000+000000000+000000000+000000000+00000000000000000
C00488163PETERS-SCHAUER 2010                                                                       HJT+000000000+000000000+000000000+000000000+000000000+000000000+000000000+000000000+000000000+000000000+000000000+000000000+000000000+000000000+000000000+000000000+000000000+000000000+000000000+000000000+00000000001302011
C00496844PETRI-RIBBLE INVITATIONAL                                                                 HJQ+000022439+000007439+000002500+000012500+000000000+000000000+000000000+000022439+000000000+000000000+000000000+000000000+000000000+000000000+000000000+000000000+000000000+000000000+000000000+000000000+00000000003312012
C00491407PROSPERITY FOR PENNSYLVANIA                                                               HJT+000001500+000000000+000000500+000001000+000000000+000000000+000000000+000004482+000000000+000000000+000000000+000000000+000000000+000002982+000000000+000000000+000000000+000000000+000000000+000000000+00000000006302011
C00520395RCP VICTORY FUND REVITALIZING CALIFORNIA PROSPERITY                                       HJQ+000000150+000000000+000000000+000000150+000000000+000000000+000000000+000000048+000000000+000000000+000000000+000000000+000000000+000000000+000000102+000000000+000000000+000000000+000000000+000000000+00000000005162012
C00514364SCHILLING DOLD NEXT GENERATION COMMITTEE                                                  HJQ+000006300+000000000+000006300+000000000+000000000+000000000+000000000+000000000+000000000+000000000+000000000+000000000+000000000+000000000+000006300+000000000+000000000+000000000+000000000+000000000+00000000003312012
C00496562SECURITY FOR AMERICA FUND                                                                 HJT+000031500+000000000+000000000+000031500+000000000+000000000+000000000+000031500+000028870+000000000+000000000+000000000+000000000+000000000+000000000+000000000+000000000+000000000+000000000+000000000+00000000009302011
C00498386SECURITY FOR AMERICA FUND II                                                              HJT+000034500+000000000+000000000+000034500+000000000+000000000+000000000+000034500+000032094+000000000+000000000+000000000+000000000+000000000+000000000+000000000+000000000+000000000+000000000+000000000+00000000003312012
C00501759SECURITY FOR AMERICA FUND III                                                             HJT+000032000+000000000+000000000+000032000+000000000+000000000+000000000+000032000+000027613+000000000+000000000+000000000+000000000+000000000+000000000+000000000+000000000+000000000+000000000+000000000+00000000003312012
C00502278SECURITY FOR AMERICA FUND IV                                                              HJT+000018000+000000000+000000000+000018000+000000000+000000000+000000000+000018000+000015604+000000000+000000000+000000000+000000000+000000000+000000000+000000000+000000000+000000000+000000000+000000000+00000000003312012
C00504514SECURITY FOR AMERICA FUND V                                                               HJT+000035000+000000000+000001500+000033500+000000000+000000000+000000000+000035000+000032299+000000000+000000000+000000000+000000000+000000000+000000000+000000000+000000000+000000000+000000000+000000000+00000000003312012
C00505289SECURITY FOR AMERICA FUND VI                                                              HJT+000018866+000000000+000000000+000018866+000000000+000000000+000000000+000018866+000016390+000000000+000000000+000000000+000000000+000000000+000000000+000000000+000000000+000000000+000000000+000000000+00000000003312012
C00511030SECURITY FOR AMERICA FUND VII                                                             HJQ+000004500+000000000+000000000+000004500+000000000+000000000+000000000+000001163+000000000+000000000+000000000+000000000+000000000+000000000+000003337+000000000+000000000+000000000+000000000+000000000+00000000003312012
C00514042SECURITY FOR AMERICA FUND VIII                                                            HJQ+000000000+000000000+000000000+000000000+000000000+000000000+000000000+000000000+000000000+000000000+000000000+000000000+000000000+000000000+000000000+000000000+000000000+000000000+000000000+000000000+00000000003312012
C00494252SIMPSON-LABRADOR VICTORY FUND                                                             HJQ+000000000+000000000+000000000+000000000+000000000+000000000+000000000+000000000+000000000+000000000+000000000+000000000+000000000+000000000+000000000+000000000+000000000+000000000+000000000+000000000+00000000000000000
C00411348SISTER-ACT COMMITTEE                                                                      HJQ+000015476+000000000+000009375+000006000+000000000+000000000+000000000+000012811+000000000+000000000+000000000+000000000+000000000+000000106+000002771+000000000+000000000+000000000+000000000+000000000+00000000005162012
C00499871SOUTH CAROLINA YOUNG GUNS VICTORY FUND DUNCAN GOWDY MULVANEY SCOTT                        HJT+000063279+000000000+000049410+000013000+000000000+000000000+000000000+000063279+000043583+000000000+000000000+000000000+000000000+000000000+000000000+000000000+000000000+000000000+000000000+000000000+00000000012212011
C00455774SOUTHEASTERN PENNSYLVANIA VICTORY FUND                                                    HJA+000000000+000000000+000000000+000000000+000000000+000000000+000000000+000000000+000000000+000000000+000000000+000000000+000000000+000000000+000000000+000000000+000000000+000000000+000000000+000000000+00000000000000000
C00493817TEAM 2012                                                                                 HJT+000062900+000000000+000000000+000062900+000000000+000000000+000000000+000062900+000055700+000000000+000000000+000000000+000000000+000000000+000000000+000000000+000000000+000000000+000000000+000000000+00000000012312011
C00505313TEXAS YOUNG GUNS VICTORY FUND (CANSECO, FARENTHOLD, FLORES)                               HJT+000018100+000000000+000011600+000006500+000000000+000000000+000000000+000018100+000006503+000000000+000000000+000000000+000000000+000000000+000000000+000000000+000000000+000000000+000000000+000000000+00000000002102012
C00521740WESTMORELAND-WEST COMMITTEE                                                               HJQ+000000000+000000000+000000000+000000000+000000000+000000000+000000000+000000000+000000000+000000000+000000000+000000000+000000000+000000000+000000000+000000000+000000000+000000000+000000000+000000000+00000000000000000
C00494351WHITFIELD LATOURETTE COMMITTEE                                                            HJT+000013524+000013524+000000000+000000000+000000000+000000000+000000000+000013524+000000000+000000000+000000000+000000000+000000000+000000000+000000000+000000000+000000000+000000000+000000000+000000000+00000000012312011
C00489500WISCONSIN VICTORY FUND                                                                    HJT+000000000+000000000+000000000+000000000+000000000+000000000+000000000+000000000+000000000+000000000+000000000+000000000+000000000+000000000+000000000+000000000+000000000+000000000+000000000+000000000+00000000000000000
C00521294YOUNG GUNS 2012 ROUND 1                                                                   HJQ+000000000+000000000+000000000+000000000+000000000+000000000+000000000+000000000+000000000+000000000+000000000+000000000+000000000+000000000+000000000+000000000+000000000+000000000+000000000+000000000+00000000000000000
C00484915COMMITTEE TO ELECT DAVID (1TERM) MCKINLEY II; THE                                         HUA+000000000+000000000+000000000+000000000+000000000+000000000+000000000+000000000+000000000+000000000+000000000+000000000+000000000+000000000+000000000+000000000+000000000+000000000+000000000+000000000+00000000000000000
C90011800FIDELIS                                                                                   IAQ+000000000+000000000+000000000+000000000+000000000+000000000+000000000+000108522+000000000+000000000+000000000+000000000+000000000+000000000+000000000+000000000+000000000+000000000+000000000+000000000+00000000004032012
C900107942020 ACTION FUND INC                                                                      IUQ+000000000+000000000+000000000+000000000+000000000+000000000+000000000+000000000+000000000+000000000+000000000+000000000+000000000+000000000+000000000+000000000+000000000+000000000+000000000+000000000+00000000000000000
C900096145TH CONGRESSIONAL DISTRICT INDEPENDENCE PARTY                                             IUQ+000000000+000000000+000000000+000000000+000000000+000000000+000000000+000000000+000000000+000000000+000000000+000000000+000000000+000000000+000000000+000000000+000000000+000000000+000000000+000000000+00000000000000000
C90010166AALA, MARIBETH                                                                            IUQ+000000000+000000000+000000000+000000000+000000000+000000000+000000000+000000000+000000000+000000000+000000000+000000000+000000000+000000000+000000000+000000000+000000000+000000000+000000000+000000000+00000000000000000
C90006586ABRAHAM, PHILIP F                                                                         IUQ+000000000+000000000+000000000+000000000+000000000+000000000+000000000+000000000+000000000+000000000+000000000+000000000+000000000+000000000+000000000+000000000+000000000+000000000+000000000+000000000+00000000000000000
C90007964ABRAMS, PAUL G                                                                            IUQ+000000000+000000000+000000000+000000000+000000000+000000000+000000000+000000000+000000000+000000000+000000000+000000000+000000000+000000000+000000000+000000000+000000000+000000000+000000000+000000000+00000000000000000
C90006610ADAMS, STEPHEN                                                                            IUQ+000000000+000000000+000000000+000000000+000000000+000000000+000000000+000000000+000000000+000000000+000000000+000000000+000000000+000000000+000000000+000000000+000000000+000000000+000000000+000000000+00000000000000000
C90010604ADVANCING WISCONSIN INC                                                                   IUQ+000000000+000000000+000000000+000000000+000000000+000000000+000000000+000000000+000000000+000000000+000000000+000000000+000000000+000000000+000000000+000000000+000000000+000000000+000000000+000000000+00000000000000000
C90007394ADVOCATES PLANNED PARENTHOOD OF LOUISVILLE AND WESTERN KY                                 IUQ+000000000+000000000+000000000+000000000+000000000+000000000+000000000+000000000+000000000+000000000+000000000+000000000+000000000+000000000+000000000+000000000+000000000+000000000+000000000+000000000+00000000000000000
C90011255AFL-CIO COMMITTEE ON POLITICAL EDUCATION TREASURY ACCOUNT                                 IUQ+000000000+000000000+000000000+000000000+000000000+000000000+000000000+000000000+000000000+000000000+000000000+000000000+000000000+000000000+000000000+000000000+000000000+000000000+000000000+000000000+00000000000000000
C90013053AFRICAN FEDERALIST MOVEMENT                                                               IUQ+000000000+000000000+000000000+000000000+000000000+000000000+000000000+000000000+000000000+000000000+000000000+000000000+000000000+000000000+000000000+000000000+000000000+000000000+000000000+000000000+00000000003312012
C90012535AG CONSULTANTS                                                                            IUQ+000000000+000000000+000000000+000000000+000000000+000000000+000000000+000000000+000000000+000000000+000000000+000000000+000000000+000000000+000000000+000000000+000000000+000000000+000000000+000000000+00000000000000000
C90007170AHMANSON, HOWARD F JR                                                                     IUQ+000000000+000000000+000000000+000000000+000000000+000000000+000000000+000000000+000000000+000000000+000000000+000000000+000000000+000000000+000000000+000000000+000000000+000000000+000000000+000000000+00000000000000000
C90008905ALAN KELLMAN                                                                              IUQ+000000000+000000000+000000000+000000000+000000000+000000000+000000000+000000000+000000000+000000000+000000000+000000000+000000000+000000000+000000000+000000000+000000000+000000000+000000000+000000000+00000000000000000
C90006966ALAN R BRAYTON DBA BRAYTON PURCELL                                                        IUQ+000000000+000000000+000000000+000000000+000000000+000000000+000000000+000000000+000000000+000000000+000000000+000000000+000000000+000000000+000000000+000000000+000000000+000000000+000000000+000000000+00000000000000000
C90007824ALLAN HASH                                                                                IUQ+000000000+000000000+000000000+000000000+000000000+000000000+000000000+000000000+000000000+000000000+000000000+000000000+000000000+000000000+000000000+000000000+000000000+000000000+000000000+000000000+00000000000000000
C90011628ALLIANCE FOR AMERICA'S FUTURE                                                             IUQ+000000000+000000000+000000000+000000000+000000000+000000000+000000000+000000000+000000000+000000000+000000000+000000000+000000000+000000000+000000000+000000000+000000000+000000000+000000000+000000000+00000000000000000
C90005851ALLINA, FRANZ                                                                             IUQ+000000000+000000000+000000000+000000000+000000000+000000000+000000000+000000000+000000000+000000000+000000000+000000000+000000000+000000000+000000000+000000000+000000000+000000000+000000000+000000000+00000000000000000
C90007865ALLISON, JOYCE                                                                            IUQ+000000000+000000000+000000000+000000000+000000000+000000000+000000000+000000000+000000000+000000000+000000000+000000000+000000000+000000000+000000000+000000000+000000000+000000000+000000000+000000000+00000000000000000
C90011727ALMY, SUSAN                                                                               IUQ+000000000+000000000+000000000+000000000+000000000+000000000+000000000+000000000+000000000+000000000+000000000+000000000+000000000+000000000+000000000+000000000+000000000+000000000+000000000+000000000+00000000000000000
C90012097AMERICA VOTES                                                                             IUQ+000000000+000000000+000000000+000000000+000000000+000000000+000000000+000000000+000000000+000000000+000000000+000000000+000000000+000000000+000000000+000000000+000000000+000000000+000000000+000000000+00000000000000000
C90012261AMERICA'S FUTURE FUND INC.                                                                IUQ+000000000+000000000+000000000+000000000+000000000+000000000+000000000+000000000+000000000+000000000+000000000+000000000+000000000+000000000+000000000+000000000+000000000+000000000+000000000+000000000+00000000000000000
