H2AK00093URQUIDI, DOUGLAS C                    C1DEM00000002730000000000000000250900000000000000000000-0000022350000000000000000000000000000000000000000000000000000000025210000000273AK00       000000000000000000000331201200000000000000000000
H4AK00057VONDERSAAR, FRANK J                   C1DEM0000000300000000000000000001000000000000000000000000000002000000000000000000030000000000000000000000000000000000000003000000000000AK00       000000000000000000000331201200000000000000000000
H6AK00045YOUNG, DONALD E                       I2REP0000626228000000000000002452170000000000000017074200005517530000000000000000000000000000000000000000000000000000000000000000433998AK00       000019063000000000000331201200000023500000001000
H0AL01030GOUNARES, PETER HUNTER                C2REP0000015075000000000000000149430000000000000000000300000001340000000000000000433000000000000000001528000000000000000171570000010545AL01       000000000000000000000331201200000000000000000000
H2AL01077BONNER, JOSIAH ROBIAS                 I2REP0000873097000000000000009597000000000000000027981100001932080000000000000000000000000000000000000000000000000000000000000000466365AL01 W     000039653400000000000331201200000000000000000000
H2AL01176YOUNG, LARRY DEAN JR                  C2REP0000234850000000000000002340660000000000000000000000000007840000003050000019000000000000000000075000000000000000001150000000041645AL01       000000000000000000000331201200000000000000000000
H2AL01184RIEHM, PETER (PETE) J A               C2REP0000039834000000000000000323000000000000000000000000000103370000000000000000500000000000000000000000000000000000000050000000034834AL01       000000000000000000001231201100000000000000000000
H2AL01192RAILEY, CURTIS MONROE                 C3IND0000018015000000000000000103630000000000000000000000000076520000000000000001000000000000000000000000000000000000000100000000008015AL01???????000000000000000000000331201200000000000000000000
H0AL02087ROBY, MARTHA                          I2REP0000763914000002046700003296630000000000000001328100004475320000000000000000000000000000000000000000000000000000000000000000391164AL02 W     000035228300000000000331201200000040040000002385
H2AL03032ROGERS, MICHAEL DENNIS                I2REP0000604106000000000000005635280000170000000020425900002448370000000000000000000000000000000000000000000000000000000000000000271821AL03 W     000032700000000020000331201200000010000000000000
H6AL04098ADERHOLT, ROBERT BROWN                I2REP0000742201000000000000005155310000000000000004660900002732790000000000000000000000001000000000000000000015000000000000000000306428AL04 W     000033525000000000000331201200000005000000006000
H2AL05094HOLLEY, CHARLIE LEE                   C1DEM0000008590000000000000000077290000000000000000005000000009100000000000000000000000000000000000000000000000000000000040300000008590AL05 W     000000000000000000000331201200000000000000000000
H0AL05163BROOKS, MO                            I2REP0000593298000001134600003062160000000000000005042000003375030000000000000000000000000000000000000000000000000000000000000000263450AL05 W     000031784800000000000331201200000001000000000000
H8AL05109GRIFFITH, R PARKER                    C2REP0000594041000000000000005871420000000000000000031600000072140000158000000041000000000000000000000000000000000000004100000000020366AL05       000000000000000000000331201200000002360000000000
H2AL06142BAILEY, PENNY HUGGINS                 C1DEM0000010243000000000000000050360000000000000000000000000052060000000000000000000000000000000000000000000000000000000000000000005243AL06 W     000000500000000000000330201200000000000000000000
H2AL06035BACHUS, SPENCER T III                 I2REP0002254328000000000000021807750000000000000043995900005135120000000000000000000000000000000000000000000000000000000000000000936602AL06 W     000120930800000000000331201200000015000000012000
H2AL06100STANDRIDGE, JACK DAVID                C2REP0000040299000000000000000376760000000000000000000000000026230000000000000000800000000000000000000000000000000000000080000000032299AL06       000000000000000000000222201200000000000000000000
H2AL06126BEASON, SCOTT                         C2REP0000135445000000000000001099150000000000000000000000000080960000000200000000000000000000000000000000000000000000000000000000135245AL06       000000000000000000000331201200000000000000000000
H0AL07086SEWELL, TERRYCINA ANDREA              I1DEM0000791292000000000000004776180000066532000003601800003496920000000000000000000000000000000000000000000000000000000000000000402196AL07 W     000038690000000000000331201200000000000000002500
H0AL07177CHAMBERLAIN, DONALD NORWOOD           C2REP00000113590000000000000001198500000000000000000862-0000000090000000000000000629000000041300000000000000000000000000104200000000439AL07 W     000000000000000000000331201200000000000000000000
H2AL07165NORRIS, PHILLIP DWIGHT                C2REP0000005966000000000000000059590000000000000000000000000001070000000000000000555600000000000000000000000000000000000055560000000410AL07       000000000000000000000331201200000000000000000000
H2AR01055HALL, CLARK MADISON                   C1DEM0000367865000000000000003608930000000000000000000000000069720000000651000007500000000065000000000000000000000000001845690000227565AR01       000005600000000021500523201200000000000000000000
H2AR01063LATANICH, GARY ANDREW                 C1DEM0000046510000000000000000442830000000000000000010000000000300000000000000002400000000000000000000000000000000000000240000000020710AR01       000000180000000000000516201200000000000000000000
H2AR01071ELLINGTON, SCOTT A                    C1DEM0000074901000000000000000731710000000000000000000000000017300000000000000000000000000000000000000000000000000000000190220000064751AR01       000001015000000000000523201200000000000000000000
H0AR01083CRAWFORD, ERIC ALAN RICK              I2REP0000793275000002979500004372410000001000000009117200004472060000000000000000000000000000000000062600000000000000000000000000415185AR01 W     000033973700000082250502201200000000000000001500
H2AR02053RULE, HERB C. III                     C1DEM0000019052000000000000000100810000000000000000000000000089700000000000000000990000000000000000000000000000000000000099000000006652AR02 W     000000000000000025000502201200000000000000000000
H0AR02107GRIFFIN, JOHN TIMOTHY                 I2REP0001220683000001704400006830760000000000000008148800006190950000000000000000000000000000000000000000000000000000000000000000802915AR02 W     000037874800000000000502201200000088500000000000
H2AR03234ADEN, KENNETH WADE                    C1DEM0000035019000000000000000331530000000000000000021500000020820000001300000000000000000000000000000000000000000000000000000000022164AR03 W     000000505500000065000502201200000000000000000000
H0AR03055WOMACK, STEVE                         I2REP0000439976000001919400002014300000000000000007676400003153100000000000000000000000000000000000000000000000000000000035220000161474AR03 W     000025480000000000000502201200000000000000000000
H0AR04038ROSS, MICHAEL AVERY                   I1DEM0000450318000000000000004511300000000000000004445300000436410000000000000000000000000000000000000000000000000000000000000000096314AR04???????000034971900000000000331201200000983440000028500
H2AR04109JEFFRESS, GENE                        O1DEM0000040360000000000000000308440000000000000000000000000053240000008000000000400000000000000000000000000000000000000000000000023360AR04       000000000000000000000523201200000000000000000000
H2AR04125MORRISON, DANIEL COCHRAN              O1DEM0000052525000000000000000248680000000000000000000000000276560000000000000004810000000000000000000000000000000000000000000000004425AR04       000000000000000000000510201200000000000000000000
H2AR04133HURST, Q. BYRUM JR                    O1DEM0000231299000000000000002268700000000000000000000000000044290000002500000000000000000000000000000000000000000000000000000000221799AR04       000000700000000000000523201200000060000000000000
H0AR04079RANKIN, BETH ANNE                     O2REP0000397561000000000000003245790000000000000000714500000801280000000000000000000000000000000000000000000000000000000000000000383633AR04       000001187500000002250502201200000007000000000000
H2AR04083COTTON, THOMAS                        O2REP0001081917000000000000006451420000000000000000000000004367760000000000000000000000000000000000000000000000000000000000000000996828AR04 W     000008489000000000000502201200000086340000000000
H2AR04091RICHMOND, MARCUS EDWARD               O2REP0000162209000000000000001587000000000000000000000000000035090000006724000013016000000000000000100000000000000000000301600000025325AR04???????000000000000000000000502201200000000000000000000
H2AR04117COWART, JOHN DAVID                    O2REP0000043930000000000000000307070000000000000000000000000132220000017636000000000000000000000000000000000000000000000000000000026292AR04       000000000000000000000502201200000000000000000000
H0AS00018FALEOMAVAEGA, ENI                     I1DEM0000017800000000000000000124940000000000000000021800000055240000000100000000000000000000000000000000000000000000000053300000017700AS00???????0000000000000000000003312012-0000010000000000000
H2AZ01271BALDENEGRO, WENONA RAE BENALLY        C1DEM0000076095000000000000000745400000000000-00000021200000013430000000071000000040000000000000000000400000000000000000025000000074424AZ01       000000120000000000000331201200000000000000000000
H8AZ01104KIRKPATRICK, ANN                      C1DEM0000988286000000000000003445810000000000000001389700006576020000000000000000000000000000000000000000000000000000000000000000779729AZ01       000018521200000023050331201200000002600000000500
H8AZ01161OLIVAS, MIGUEL MIKE                   C1DEM0000026773000000000000000237840000000000000000000000000029890000001639000002378400000000000000000000000000000000000237840000001350AZ01???????000000000000000000000331201200000000000000000000
H0AZ08056PATON, JONATHAN                       C2REP0000213043000000000000000695380000000000000001238900001558950000000000000000000000000000000000000000000000000000000122520000211841AZ01       000000100000000000000331201200000002300000000000
H2AZ01289WADE, DOUGLAS                         C2REP0000033178000000000000000113890000000000000000000000000217900000000000000001500000000000000000000000000000000000000155760000018178AZ01       000000000000000000000331201200000000000000000000
H2AZ02279ABOUD, PAULA ANN                      C1DEM0000077689000000000000000499150000000000000005952200000872960000000000000005000000000000000000000000000000000000000500000000027685AZ02???????000000000000000000000331201200000187000000000000
H2AZ02287FARLEY, STEVE                         C1DEM0000026825000000000000000138630000000000000000000000000129620000000000000000000000000000000000000000000000000000000000000000026825AZ02???????000000000000000000000331201200000030000000000000
H2AZ08078HEINZ, MATTHEW GERALD                 O1DEM0000102030000000000000000249940000000000000000000000000770360000030000000000000000000000000000000000000000000000000000000000072030AZ02       000000000000000000000331201200000000000000000000
H2AZ08086KONST, NOMIKI                         O1DEM0000010535000000000000000040660000000000000000000000000064690000000000000000000000000000000000000000000000000000000000000000010535AZ02???????000000000000000000000331201200000000000000000000
H0AZ02141BLACK, CHARLES ROLAND                 C2REP0000000000000000000000000000000000000000000000000600000000060000000000000000000000000000000000000000000000000000000085760000000000AZ02???????000000000000000000000217201100000000000000000000
H0AZ08015KELLY, JESSE                          C2REP0000809857000005368400007655150000055740000003895100000833120000010001000000000000000000000000000000000000000000000172990000473611AZ02       000023550000000000000523201200000029200000000000
H2AZ08102MCSALLY, MARTHA E                     C2REP0000134704000000000000000900430000000000000000000000000446610000000042000000000000000000000000000000000000000000000069360000128841AZ02       000000450000000000000328201200000000000000000000
H4AZ04024FRANKS, TRENT                         I2REP0000204316000000000000001637610000000000000001565800000562120000000000000000200000000000000000000000000000000000003455860000096756AZ02       000010489600000000000331201200000000000000000000
H6AZ08129ANTENORI, FRANK RONALD                C2REP00000366890000000000000004935500000000000000009742-0000029240000000000000000000000000000000000000000000000000000000000000000036189AZ02???????000000050000000000000328201200000000000000000000
H2AZ03095CROWE, DAVID                          C1DEM0000087200000000000000000160000000000000000000000000000712000000000000000007500000000000000000000000000000000000000750000000012200AZ03???????000000000000000000000331201200000000000000000000
H2AZ03111ARREGUIN, JUAN MANUEL                 C1DEM0000011939000000000000000031190000000000000000000000000088200000000100000000000000000000000000000000000000000000000000000000011839AZ03       000000000000000000000331201200000000000000000000
H2AZ03137AGUIRRE, AMANDA                       C1DEM0000031158000000000000000004960000000000000000000000000306620000002500000000000000000000000000000000000000000000000000000000026158AZ03       000000250000000000000331201200000000000000000000
H2AZ07070GRIJALVA, RAUL M                      I1DEM0000425992000000000000003099310000000000000003027200001463330000000000000000000000000000000000000000000000000000000074730000239035AZ03       000018145000000000050331201200000008000000000025
H2AZ03145GUERRA, BLANCA A                      C3LIB0000002399000000000000000018750000000000000000000000000005230000000000000000000000000000000000000000000000000000000000000000002399AZ03       000000000000000000000331201200000000000000000000
H0AZ01259GOSAR, PAUL ANTHONY                   I2REP0000687904000000846600003542800000000000000000074000003343630000000000000000000000000000000000000000000000000000000186630000431461AZ04       000024623400000011540331201200000016000000000000
H2AZ04127BABEU, PAUL RAYMOND                   C2REP0000407310000000000000000983280000000000000000000000003089820000000000000000000000000000000000000000000000000000000000000000399810AZ04???????000000750000000000000331201200000000000000000000
H2AZ04135GOULD, RON                            C2REP0000116425000000000000000115910000000000000000000000001048340000000000000009750000000000000000000000000000000000000975000000018925AZ04       000000000000000000000331201200000000000000000000
H2AZ06163WINTERS, JUSTIN                       C3IND0000000840000000000000000008400000000000000000000000000000000000000200000000000000000000000000000000000000000000000000000000000640AZ04???????000000000000000000000323201200000001220000000000
H2AZ06148ADAMS, KIRK DAVID                     O2REP0000527062000000000000002315360000000000000000000000002955260000000000000000000000000000000000000000000000000000000000000000446923AZ05       000008000000000000000331201200000035000000000000
H4AZ01038SALMON, MATT                          O2REP0000721156000000000000002525140000000000000000000000004686410000000000000001000000000000000000000000000000000000000150000000612356AZ05       000009880000000000000331201200000001000000000000
H2AZ05132WILLIAMSON, W JOHN                    C1DEM0000000430000000000000000003810000000000000000005100000001000000000430000000000000000000000000000000000000000000000000000000000000AZ06       000000000000000000000331201200000000000000000000
H0AZ01184FLAKE, JEFF MR.                       I2REP0003972508000002970900015005300000000000000062785100030998290000000000000000000000000000000000000000000000000000000000000003461221AZ06???????000047753800000000000331201200000098000000002500
H0AZ03362QUAYLE, BEN                           I2REP0001322311000000022500003576160000000000000000760700009723020000000000000000250000000000000000000000000000000000000141370000996613AZ06       000032090700000000000331201200000006000000001250
H2AZ06122GRAY, CHUCK                           O2REP0000036206000000000000000237620000000000000000000000000124450000000100000000000000000000000000000000000000000000000000000000036073AZ06???????000000000000000000000331201200000000000000000000
H4AZ06045SCHWEIKERT, DAVID                     I2REP0001214174000001621000003965810000000000000001608300008336760000000500000010000000000000000000000000000000000000006018000000616802AZ06       000047996400000000000331201200000050000000000000
H2AZ02055PASTOR, ED L                          I1DEM0000530845000000000000004810790000000000000139193600014417020000000048000000000000000000000000000000000000000000000000000000206331AZ07       000031391600000000000331201200000024000000000000
H2AZ07146MERCER, GABRIELA SAUCEDO              C2REP0000128411000000000000001181510000000000000000000000000100800000000253000000000000000000000000000000000000000000000000000000123158AZ07       000000500000000000000331201200000000000000000000
H2AZ07153SCILEPPI, CHRISTOPHER LEGRANDE        C2REP0000000000000000000000000000000000000000000000000000000000000000000000000000000000000000000000000000000000000000000000000000000000AZ07???????000000000000000000000131201200000000000000000000
H0AZ04501PENALOSA, JOSE                        C3IND0000008834000000000000000085020000000000000000000100000002850000008834000000000000000000000000000000000000000000000000000000000000AZ07???????000000000000000000000331201200000000000000000000
H2AZ08094BARBER, RONALD                        O1DEM0001193698000000000000008031570000000000000000000000003905420000000000000000000000000000000000000000000000000000000000000000891683AZ08W      000029364000000050000523201200000012400000000000
H6AZ08038GIFFORDS, GABRIELLE                   I1DEM0001024074000000000000005856830000000000000028550100007238930000000000000000000000000000000000000000000000000000000000000000520977AZ08???????000045625000000022560331201200000547700000066500
H2AZ02253LERVOLD, JOHN DAVID                   C2REP0000006369000000000000000061290000000000000000000000000002400000001469000000450000000000000000000000000000000000000045000000000400AZ08???????000000000000000000000405201200000000000000000000
H2AZ08052HANSEN, ADAM                          C2REP0000003667000000000000000036050000000000000000003500000000970000003602000000000000000000000000000000000000000000000000000000000065AZ08???????000000000000000000000331201200000000000000000000
H2AZ08060SITTON, DAVE                          O2REP0000260550000000000000001430320000000000000000000000001175180000000000000000000000000000000000000000000000000000000000000000260550AZ08???????000000000000000000000328201200000000000000000000
H2AZ09019SINEMA, KYRSTEN                       C1DEM0000258734000000000000001040310000000000000000000000001547030000000000000000000000000000000000000000000000000000000000000000233470AZ09       000002526400000000000331201200000000000000000000
H2AZ09027SCHAPIRA, DAVID                       C1DEM0000131802000000000000000700000000000000000000000000000618020000007335000000000000000000000000000000000000000000000000000000114517AZ09       000000995000000000000331201200000000000000000000
H2AZ09043CHERNY, ANDREI                        C1DEM0000431078000000000000000369180000000000000000000000003941600000000000000000000000000000000000000000000000000000000000000000418078AZ09       000001300000000000000331201200000000000000001000
H0AZ03321PARKER, VERNON                        C2REP0000030200000000000000000004470000000000000000156300000313160000000000000000000000000000000000000000000000000000000142960000029856AZ09       000000000000000000000331201200000000000000000000
H2AZ06155GRANTHAM, TRAVIS W.                   O2REP0000292753000000000000000919190000000000000000000000002008340000002500000019000000000000000000000000000000000000001900000000099753AZ09       000000050000000000000331201200000000000000000000
H2AZ09035ROGERS, WENDY                         C2REP0000086549000000000000000125240000000000000000000000000740250000000000000000000000000000000000000000000000000000000000000000086549AZ09       000000000000000000000331201200000000000000000000
H2AZ09050SEPULVEDA, MARTIN C                   C2REP0000064750000000000000000010430000000000000000000000000637070000000000000000000000000000000000000000000000000000000000000000064750AZ09       000000000000000000000331201200000000000000000000
H2AZ09084SCHANDLBAUER, LEAH CAMPOS             C2REP0000014275000000000000000004460000000000000000000000000138290000000000000000000000000000000000000000000000000000000000000000006775AZ09       000000750000000000000331201200000000000000000000
H2AZ09092STAPLEY, DON                          C3UNK0000000000000000000000000000000000000000000000000000000000000000000000000000000000000000000000000000000000000000000000000000000000AZ09???????000000000000000000000320201200000000000000000000
H2CA00112MILLER, JEFFREY                       C2REP0000000000000000000000000000000000000000000000000000000000000000000000000000000000000000000000000000000000000000000000000000000000CA00???????000000000000000000000930201100000000000000000000
H0CA02138REED, JAMES E                         C1DEM0000064747000000006300000661100000000000000000191900000002320000002140000000100000000120000000002995000000000000000815550000047310CA01 W     000000085000000000000516201200000002000000000000
H0CA02120STIGLICH, PETER VINCENT               C2REP0000013049000000000000000129980000000070000000000000000000510000006848000000000000000000000000000000000000000000000000000000006201CA01       000000000000000000000516201200000000000000000000
H2CA01110AANESTAD, SAMUEL                      C2REP0000222736000000000000002098090000000000000000000000000129270000000000000015000000000000000000120000000000000000000662120000055617CA01       000001703500000000000516201200000010000000000000
H2CA01128DACQUISTO, MICHAEL                    C2REP0000029140000000000000000279610000000000000000000000000011780000024140000000500000000000000000000000000000000000000050000000000000CA01       000000000000000000000516201200000000000000000000
H2CA02142LAMALFA, DOUG                         C2REP0000473491000001100000002407360000000000000000000000002327550000000000000000000000001500000000000000000000000000001956490000200441CA01 W     000011205000000000000516201200000000000000000000
H2CA02100LAWSON, STACEY                        O1DEM0001013715000000000000007841900000000000000000000000002295250000008183000010000000000000000000000000000000000000001235470000895814CA02       000000600000000000000516201200000043500000000000
H2CA02118CAFFREY, ANDREW AUGUSTINE IV          O1DEM0000010451000000000000000103360000000000000000000000000001140000000004000000243600000025000000000109000000000000000000000000005591CA02       000000000000000000000331201200000000000000000000
H2CA02126COURTNEY, WILLIAM L                   O1DEM0000047419000000000000000471280000000000000000000000000002900000000000000003580000000000000000000000000000000000000458890000011619CA02       000000000000000000001231201100000000000000000000
H2CA02134AKHLAGHI, BANAFSHEH                   O1DEM0000018570000000000000000185700000000000000000000000000000000000000000000000000000000000000000000000000000000000000000000000018570CA02???????000000000000000000000331201200000000000000000000
H2CA02159FRITZLAN, LARRY                       O1DEM0000013740000000000000000114530000000000000000000000000022870000010900000000000000000000000000000000000000000000000000000000002840CA02       000000000000000000000515201200000000000000000000
H2CA06259HUFFMAN, JARED                        O1DEM0001004926000000000000005760000000000000000000000000004284760000000360000000000000000000000000000000000000000000001332330000811370CA02 W     000018920800000000000516201200000022610000005000
H2CA06267SOLOMON, NORMAN                       O1DEM0000642702000000000000005456110000000000000000000000000974010000013638000000440000000000000000004400000000000000000187230000590399CA02       000002606500000005000516201200000010250000000000
H2CA06275ADAMS, SUSAN L                        O1DEM0000189549000000000000001596640000000000000000000000000183190000002870000000000000000000000000000000000000000000000000000000172640CA02       000001403500000000040516201200000000250000001000
H2CA06283RENEE, TIFFANY                        O1DEM0000017542000000000000000168210000000000000000000000000007210000000000000000250000000000000000000000000000000000000039000000015042CA02       000000000000000000000516201200000000000000000000
H0CA06121ROBERTS, DANIEL                       O2REP0000184060000000000000001314170000000000000000000000000526430000000000000016000000000000000000000000000000000000001600000000020341CA02 W     000000000000000000000516201200000001000000000000
H6CA02010HERGER, WALLY                         I2REP0000395578000000000000003877500000000000000041739600004252230000000000000000000000000000000000000000000000000000000000000000062711CA02???????000031925000000000000331201200000000000000026500
H2CA02175LEWALLEN, JOHN JULIUS                 O3IND0000006380000000000000000030590000000000000000000000000033200000000000000000330000000000000000000000000000000000000033000000003080CA02       000000000000000000000516201200000000000000000000
H2CA02167CLARKE, BROOKE J                      C3   0000006521000000000000000065210000000000000000000000000000000000006521000000000000000000000000000000000000000000000000000000000000CA02       000000000000000000000515201200000000000000000000
H0CA10149GARAMENDI, JOHN                       I1DEM0000978254000000000000008953800000000000000004938300001322570000000000000001000000000000000000010000000000000000000390520000601378CA03 W     000036299500000002500516201200000013000000000000
H0CA07103TUBBS, RICHARD STEPHEN II             C2REP0000041932000000000000000404980000000000000000000000000014350000000000000001379000000000000000000000000000000000000137900000028142CA03       000000000000000000000516201200000000000000000000
H2CA03090VANN, KIM DOLBOW                      C2REP0000413120000000000000002444150000000000000000000000001687050000005000000000000000000000000000000000000000000000000784550000359120CA03 W     000004900000000000000516201200000000000000000000
H2CA03108CARLOS, JOSEPH ANTHONY                C2REP0000007205000000000000000072040000000000000000000000000000000000000140000000000000000000000000000000000000000000000000000000007065CA03       000000000000000000000630201200000001550000000000
H6CA03067SCHAUPP, CHARLES                      C2REP0000051259000000000000000460350000000000000000000000000052240000000060000005000000000000000000000000000000000000000501790000001199CA03???????000000000000000000000331201200000000000000000000
H2CA04106MOORE, WILLIAM E                      C1DEM0000002075000000000000000020750000000000000000000000000000000000000000000000000000000000000000000000000000000000000000000000002075CA04???????000000000000000000001231201100000000000000000000
H2CA04114UPPAL, JACK                           C1DEM0000018022000000000000000074990000000000000000238000000129030000000000000000500000000000000000000000000000000000000050000000011072CA04 W     000000000000000019500516201200000000000000000000
H8CA04152MCCLINTOCK, THOMAS                    I2REP0000739414000000000000007002440000000000000030736400003465350000000000000000000000000000000000000000000000000000000000000000685533CA04 W     000004904300000000000516201200000017500000000000
H8CA01109THOMPSON, MIKE MR.                    I1DEM0001123519000000000000010847460000000000000112285500011616280000000000000000000000000000000000000000000000000000000050860000478925CA05 W     000062625900000005380516201200000013000000000000
H0CA05073SMITT, ERIK J MR.                     O2REP0000003270000000000000000052590000000000000000237000000003820000000000000000000000000000000000000000000000000000000061870000003270CA05       000000000000000000000523201200000000000000000000
H2CA05095LOFTIN, JOSEPH R                      C2REP0000008954000000000000000016690000000000000000000000000072850000000000000000500000000000000000000000000000000000000050000000003954CA05 W     000000000000000000000516201200000000000000000000
H2CA01045WOOLSEY, LYNN C.                      I1DEM0000066275000000000000001033620000000000000005869600000216090000000000000000000000000000000000000000000000000000000000000000021701CA06???????000004451100000000000331201200000000000000000000
H6CA05195MATSUI, DORIS                         I1DEM0000611559000000000000004534400000000000000014678300003068520000000000000000000000000000000000000000000000000000000014000000213793CA06 W     000039700700000000000516201200000000000000000000
H0CA03078BERA, AMERISH                         C1DEM0001646912000000150000004907440000000000000000693600011631030000036995000000000000000000000000000000000000000000002503130001308682CA07 W     000028500500000005350516201200000005000000000000
H6CA34112LUNGREN, DANIEL E.                    I2REP0001405963000001011900005509130000000000000007533100009303800000000000000000000000000000000000000000000000000000000101360000683238CA07 W     000071258000000000250516201200000007900000000000
H8CA05134TUMA, DOUGLAS ARTHUR                  C3LIB0000000200000000000000000002610000000000000000015600000000960000000200000000000000000000000000000000000000000000000000000000000000CA07       000000000000000000000331201200000000000000000000
H2CA00138PINKERTON, JOHN R                     C1DEM0000020632000000000000000205030000000000000000000000000001290000000000000001912400000000000000000000000000000000000191250000001508CA08       000000000000000000000516201200000000000000000000
H8CA25058CONAWAY, JACQUESE L                   C1DEM0000013281000000000000000132370000000000000000023100000003300000000950000001000000000000000000000000000000000000000148500000002331CA08       000000000000000000000516201200000000000000000000
H0CA08069DENNIS, JOHN                          C2REP0000093224000000000000000248740000000000000000000000000684750000000000000000000000000000000000000000000000000000000193750000093224CA08 W     000000000000000000000516201200000000000000000000
H0CA42175LIBERATORE, PHILIP LAURENCE           C2REP00002968140000000000000039515600000000000000000750-0000975910000000200000025000000000000000000000000000000000000009850000000044114CA08       000000250000000000000516201200000000000000000000
H2CA08131MCEACHRON, RYAN                       C2REP0000177286000000000000001757460000000000000000000000000076630000000000000010000000000000000000000000000000000000001000000000074286CA08       000000300000000000000516201200000000000000001000
H2CA08149VALLES, ANGELA                        C2REP0000041568000000000000000413930000000000000000000000000001750000000000000003809300000000000000000000000000000000000000000000003475CA08       000000000000000000000517201200000000000000000000
H2CA08156MITZELFELT, BRAD                      C2REP0000181300000000000000001150790000000000000000000000000662210000000000000003000000000175000000000000000000000000000654020000129300CA08       000000450000000000000516201200000002500000000000
H2CA08164COOK, PAUL                            C2REP0000212427000000000000001734090000000000000000000000000390190000000000000002500000000000000000000000000000000000000250000000151188CA08 W     000003623900000000000516201200000000000000002999
H2CA08172JENSEN, WILLIAM O'NEIL JR             C2REP0000016170000000000000000152170000000000000000000000000009530000000000000000600000000000000000000000000000000000000000000000010170CA08       000000000000000000000331201200000000000000000000
H2CA41116IMUS, GREGG                           O2REP0000034380000000000000000264080000000000000000000000000079620000001010000001087000000000000000000000000000000000000108700000022453CA08 W     000000000000000000000331201200000000000000000000
H2CA08180ADAMS, ANTHONY T                      C3NOP0000022523000000000000000215340000000000000000000000000009890000000000000000000000000081500000000000000000000000000081500000013873CA08       000000050000000000000516201200000000000000000000
H4CA11081MCNERNEY, JERRY                       I1DEM0001235659000000325000005533120000000000000024358200009259290000000000000000000000000000000000000000000000000000000029540000748373CA09 W     000043582700000035250516201200000035750000000000
H2CA09105MCDONALD, JOHN                        C2REP0000090453000000000000000821910000000000000000000000000082620000020498000004380000000000000000023500000000000000000203000000026155CA09       000000000000000000000516201200000000250000000000
H2CA11135GILL, RICKY                           C2REP0001383769000000000000006753580000000000000000000000007084100000002500000015222200000000000000000000000000000000001559910001186546CA09 W     000003500000000000000516201200000431060000000000
H2CA00096BARKLEY, MICHAEL JAMES                C1DEM0000010850000000000000000101320000000000000000000000000007180000000000000001069400000000000000000000000000000000000106940000000156CA10       000000000000000000000516201200000000000000000000
H2CA10145HERNANDEZ, JOSE M                     C1DEM0000603683000000147500002364220000000000000000000000003672610000006439000000000000000000000000000000000000000000000151080000447370CA10 W     000014776500000005040516201200000100050000000000
H0CA19173DENHAM, JEFF                          I2REP0001475342000013622100004997630000000000000004658100010221600000000000000000000000000000000000000000000000000000000378550000734311CA10 W     000056368700000000000516201200000067000000001000
H2CA10152CONDIT, CHAD MATTHEW                  C3NNE0000045288000000000000000315460000000000000000000000000137420000000000000000174000000000000000000000000000000000000017400000043548CA10       000000000000000000000516201200000000000000000000
H0CA07111FITZGERALD, JOHN                      C1DEM0000011335000000000000000109340000000000000000000000000004010000006000000000000000000000000000000000000000000000000000000000005335CA11       000000000000000000000516201200000000000000000000
H6CA07043MILLER, GEORGE                        I1DEM0000534076000000000000004433560000000000000034785100004379210000000000000000000000000000000000000000000000000000000041130000163857CA11 W     000036604200000000240516201200000000000000000000
H0CA08077SHIELDS, SUMMER J                     C1DEM0000042147000000000000000417950000000000000000043000000007820000000000000000000000000000000000000000000000000000000000000000035519CA12       000000560300000000000516201200000000900000000000
H4CA12055KHANNA, ROHIT                         C1DEM0001253809000000000000001440930000000000000000000000011097160000002645000000000000000000000000000000000000000000000000590001250273CA12???????000000000000000000000331201200000151320000000000
H8CA05035PELOSI, NANCY                         I1DEM0001614559000033400000014520450000004800000015063100003131440000000000000000000000000000000000000000000000000000000000000000643758CA12 W     000063050000000000000516201200000050000000000000
H4CA12089HERMANSON, BARRY                      C3GRE0000013012000000000000000117680000000000000000000000000012420000000000000001150000000000000000000000000000000000000115000000001512CA12       000000000000000000000516201200000000000000000000
H0CA13093JELINCIC, JUSTIN                      C1DEM0000002025000000000000000023130000000000000000048900000002020000000000000000200000000000000000000100000000000000000039000000000025CA13       000000000000000000000516201200000000000000000000
H6CA09023STARK, FORTNEY P.                     I1DEM0000284887000000000000003530430000000000000053500400004668490000000000000000000000000000000000000000000000000000000000000000057882CA13 W     000021340000000000000516201200000000000000000000
H8CA09060LEE, BARBARA                          I1DEM0000681183000000000000006044430000000000000002635700001030970000000000000000000000000000000000000000000000000000000000000000493629CA13 W     000018711000000000330516201200000007000000000000
H2CA13099SINGLETON, MARILYN M                  C3UNK0000031624000000000000000232880000000000000000153500000098720000000933000000900000000000000000000000000000000000000090000000021691CA13 W     000000000000000000000516201200000000000000000000
H8CA12171SPEIER, JACKIE                        I1DEM0000629889000000000000005290330000000000000095927900010601340000000000000000000000000000000000000000000000000000000037250000353826CA14 W     000026713500000000560516201200000024000000002000
H2CA14139BACIGALUPI, DEBBIE                    C2REP0000008342000000000000000066980000000000000000000000000016440000000000000000000000000000000000000000000000000000000014860000008342CA14 W     000000000000000000000516201200000000000000000000
H0CA15171SIMITIAN, S JOSEPH                    C1DEM0000006621000000000000000205690000000000000042315700004092100000000000000000000000000000000000000000000000000000000000000000000600CA15???????000000300000000000000331201200000005000000000000
H2CA15086CORBETT, ELLEN                        C1DEM0000169740000000000000000657920000000000000000000000001039480000000000000000000000000000000000000000000000000000000000000000155135CA15???????000001450000000000000331201200000000000000000000
H2CA15094SWALWELL, ERIC MICHAEL                C1DEM0000296577000000000000002454000000000000000000000000000511770000000000000000000000000000000000000000000000000000000000000000295977CA15 W     000000000000000000000516201200000001000000000000
H0CA13119PAREJA, CHRISTOPHER JAMES             C3UNK0000017898000000000000000180970000000000000000080100000005980000000000000000000000000000000000000000000000000000000000000000017848CA15       000000000000000000000516201200000000000000000000
H0CA19132GOODWIN, LORAINE                      C1DEM0000002019000000000000000021720000000000000000000000000000000000002000000000000000000000000000000000000000000000000000000000000000CA16       000000000000000000190524201200000000000000000000
H4CA20082COSTA, JIM                            I1DEM0000804506000000150000006095440000000000000002740200002223640000000000000000000000000000000000025000000000000000000193760000429400CA16 W     000037313200000000000516201200000075000000002461
H2CA16092WHELAN, BRIAN                         C2REP0000159250000000000000001200720000000000000000000000000391780000000005000002468000000000000000000000000000000000000321000000134465CA16 W     000000010000000000000516201200000000000000000000
H2CA16100TACHERRA, JOHNNY                      C2REP0000039138000000000000000343530000000000000000000000000047840000000000000000183000000000000000000000000000000000000031970000037305CA16       000000000000000000000516201200000002000000000000
H2CA16118GARCIA, MARK                          C2REP0000044482000000000000000326380000000000000000000000000118440000000000000001160000000000000000000000000000000000000566390000032882CA16       000000000000000000000516201200000000000000000000
H0CA15148HONDA, MIKE                           I1DEM0000646393000000000000005080900000000000000020618800003444910000000000000000000000000000000000000000000000000000000000000000440835CA17 W     000020346000000001550516201200000020000000000000
H2CA17090LI, EVELYN                            C2REP0000017950000000000000000177460000000000000000000000000002040000000000000001500000000000000000000000000000000000000150000000002950CA17 W     000000000000000000000516201200000000000000000000
H2CA18056CARDOZA, DENNIS                       I1DEM0000217990000000000000002351920000000000000004751300000303110000000000000000000000000000000000000000000000000000000000000000072671CA18???????000014305000000005000331201200000039260000012500
H2CA18122PARKS, WILLIAM RANDLE                 O1DEM0000001546000000000000000010960000000000000000000000000004500000001546000000000000000000000000000000000000000000000000000000000000CA18       000000000000000000000516201200000000000000000000
H8CA12098ESHOO, ANNA                           I1DEM0000985149000000000000009531280000000000000051328000005453010000000000000000000000000000000000000000000000000000000042300000589537CA18 W     000039431700000000530516201200000138500000000500
H0CA18050BERRYHILL, MICHAEL CLARE SR           O2REP0000006481000000000000000062580000000000000000005100000002740000000000000000195000000000000000000000000000000000001720500000000000CA18???????000000000000000000000331201200000000000000000000
H6CA14098BROUILLET, CAROL LIANE                O3GRE00000128330000000000000001665700000000000000000000-0000038240000005200000000000000000000000000000000000000000000000000000000007633CA18       000000000000000000000520201200000000000000000000
H4CA16049LOFGREN, ZOE                          I1DEM0000564302000000000000003712720000000000000034297900005360100000000000000000000000000000000000000000000000000000000000000000316986CA19 W     000023233100000000000516201200000025000000001000
H4CA17021FARR, SAM                             I1DEM0000397093000000000000003216410000000000000006544500001408980000000000000000000000000000000000000000000000000000000000000000179470CA20 W     000021538300000000000516201200000024000000000000
H2CA20102OLIVER, CLINT                         C2REP0000030606000000000000000306060000000000000000000000000000000000000000000000000000000000000000000000000000000000000000000000030600CA20???????000000000000000000001231201200000214350000000000
H8CA17089TAYLOR, JEFF                          C2REP0000000000000000000000000015050000000000000001212400000106190000000000000000000000000000000000000000000000000000002635620000000000CA20 W     000000000000000000000331201200000000000000000000
H0CA19082HERNANDEZ, JOHN S                     C1DEM00000323890000000000000002939100000000000000010092-0000078540000000000000002373600000000000000000000000000000000000237360000008653CA21 W     000000000000000000000516201200000000000000000000
H2CA21167XIONG, BLONG                          C1DEM0000163871000000000000001376820000000000000000000000000261890000000000000000000000000000000000000000000000000000000139440000153361CA21       000001050000000000000516201200000020000000000000
H2CA20094VALADAO, DAVID                        C2REP0000651730000000000000001611830000000000000000000000004905470000000000000000000000000000000000000000000000000000000053520000469142CA21 W     000017600000000000000516201200000000000000000000
H2CA22140LEE, OTTO                             C1DEM0000117260000000000000000623960000000000000000000000000548640000000000000000000000000200000000000000000000000000000200000000093410CA22 W     000000385000000000000516201200000000000000000000
H8CA20059NUNES, DEVIN GERALD                   I2REP0000874925000000000000003780900000000000000101385300015106880000000000000000000000000000000000000000000000000000000000000000456280CA22 W     000041305200000000000516201200000024000000000000
H0CA23118WATSON, THOMAS C                      C2REP0000014908000000000000000143110000000000000000456500000051620000000000000000000000000000000000000000000000000000000000000000014360CA23???????000000000000000000000331201200000051000000000000
H6CA22125MCCARTHY, KEVIN                       I2REP0003667653000000000000022107440000000000000120040000025823590000000000000000000000000000000000000000000000000000000200000001552443CA23 W     000209660000000000000516201200000010670000002500
H2CA23122PHILLIPS, TERRY                       C3IND0000014082000000000000000069830000000000000000000000000070980000000000000000000000000000000000000000000000000000000000000000014067CA23 W     000000000000000000000516201200000000010000000000
H2CA24146POLLOCK, DAVID                        O1DEM0000095516000000000000000953010000000000000000000000000002160000000492000001392000000000000000000000000000000000000139200000080042CA24???????000000025000000000000331201200000012750000000000
H8CA22089CAPPS, LOIS                           I1DEM0001710303000000095000009381850000000000000032101000010931280000000000000000000000000000000000000000000000000000000000000001153209CA24 W     000055024900000025150516201200000018500000001000
H2CA23106MALDONADO, ABEL                       C2REP0001496549000000000000011749700000000000000000000000003215790000000100000075000000000000000000750000000000000000000000000000692959CA24 W     000005349000000000000516201200000095200000000000
H2CA23114MITCHUM, CHRISTOPHER                  C2REP0000150031000000000000001256100000000000000000000000000244210000000000000010050000000000000000100000000000000000000254020000047531CA24       000000200000000000000516201200000000000000000000
H6CA21028GALLEGLY, ELTON                       I2REP0000249981000000000000002634070000000000000075080900007373830000000000000000000000000000000000000000000000000000000000000000206528CA24???????000003547000000000000331201200000051000000000000
H2CA24161BOUTTE, MATTHEW ELLIOTT               O3   0000006902000000000000000055120000000000000000000000000013890000000000000000000000000000000000000000000000000000000004720000006902CA24       000000000000000000000516201200000000000000000000
H2CA25143ROGERS, LEE C                         C1DEM0000180429000000000000001538510000000000000000000000000265780000000000000000000000000135000000000000000000000000000202720000154679CA25 W     000001225000000000000516201200000000000000000000
H2CA25036MCKEON, HOWARD P. 'BUCK'              I2REP0001396561000003404500008626870000000000000029282800008267020000000000000000000000000000000000000000000000000000000000000000814762CA25 W     000053520000000000000516201200000019000000001500
H2CA25168WRIGHT, CATHIE                        C2REP0000003000000000000000000044810000000000000000211000000006260000003000000000000000000000000000000000000000000000000000000000000000CA25       000000000000000000000516201200000000000000000000
H2CA25176ACOSTA, DANTE                         C2REP0000021565000000000000000154590000000000000000000000000061060000000000000001516500000000000000000000000000000000000151650000006400CA25       000000000000000000000516201200000000000000000000
H2CA00120BROWNLEY, JULIA                       C1DEM0000549202000000000000003318800000000000000000000000002173210000000000000000000000000250000000000000000000000000000250000000403369CA26 W     000012075000000000000516201200000012000000000250
H2CA24153THAYNE, DAVID CRUZ                    C1DEM0000105654000000000000000545440000000000000000000000000509860000000415000000000000000000000000000000000000000000000000000000105239CA26       000000000000000000000516201200000000000000000000
H2CA26075BENNETT, STEVE                        C1DEM0000307732000000000000003047570000000000000000000000000029760000024288000003600000000000000000000000000000000000000360000000246429CA26???????000000100000000000160331201200002358290000000000
H2CA26083RUELAS, ESEQUIEL FRANK                C1DEM0000000000000000000000000000000000000000000000000000000000000000000000000000000000000000000000000000000000000000000000000000000000CA26???????000000000000000000000119201200000000000000000000
H2CA26117HERRERA, JESS JOHN                    C1DEM0000020006000000000000000108130000000000000000000000000091930000000000000000000000000000000000000000000000000000000000000000018006CA26       000000200000000000000516201200000000000000000000
H2CA26109STRICKLAND, ANTHONY A                 C2REP0000955278000001100000002371590000000000000000000000007237970000000000000000000000000000000000000000000000000000000000000000768779CA26 W     000017549900000000000516201200000170000000000000
H8CA35032DREIER, DAVID                         I2REP0000131853000000000000001687560000000000000075459500007176930000000000000000000000000000000000000000000000000000000000000000016065CA26???????000007875000000000000331201200000000000000000000
H2CA26091PARKS, LINDA                          C3   0000208982000000000000001765930000000000000000000000000323890000001767000002500000000000000000000000000000000000000251590000182215CA26       000000000000000000000516201200000000000000000000
H0CA32101CHU, JUDY                             I1DEM0000882610000000000000003945420000000000000059181400010785820000000000000005500000000000000000055000000000000000000104940000632921CA27 W     000019018500000000000516201200000013000000000000
H2CA27198ORSWELL, JACK                         C2REP0000074472000000000000000461210000000000000000000000000283520000002505000002000000000000000000000000000000000000000226270000051967CA27 W     000000000000000000000516201200000010000000000000
H2CA27206DURAN, ROBERT                         C2REP0000050052000000000000000276750000000000000000000000000223780000000000000000000000000310000000000000000000000000000935210000018649CA27       000000000000000000000516201200000000000000000000
H0CA27085SCHIFF, ADAM                          I1DEM0000908774000000000000006773270000000000000180898600020404320000000000000000000000000000000000000000000000000000000139380000563041CA28 W     000032480500000000000516201200000000000000000000
H0CA28109WORMAN, JENNY                         C2REP0000000000000000000000000000000000000000000000000000000000240000000000000000174000000010120000000000000000000000000000000000000000CA28       000000000000000000000331201200000000000000000000
H0CA00082PORTANTINO, ANTHONY                   C1DEM0000331569000000000000000763210000000000000002758200002828300000000000000002500000000000000000000000000000000000000250000000239725CA29???????000006082200000050210331201200000030000000000000
H0CA28117VALDEZ, RICHARD                       C1DEM0000000000000000000000000000000000000000000000000000000000000000000000000000000000000000000000000000000000000000000000000000000000CA29       000000000000000000001231201100000000000000000000
H2CA28113CARDENAS, TONY                        C1DEM0000399901000000000000002782900000000000000000000000001216110000000000000000000000000000000000000000000000000000000000000000292651CA29 W     000010725000000000000516201200000000000000002500
H2CA28097HERNANDEZ, DAVID RAYMOND              C2REP0000009657000000000000000022470000000000000000000000000015240000000500000000340000000000000000000000000000000000000086130000005757CA29 W     000000000000000000000516201200000000000000000000
H2CA26026BERMAN, HOWARD L                      I1DEM0003130641000000000000034107230000000000000109941300008213610000000000000000000000000000000000000000000000000000000631100002595661CA30 W     000052531500000001240516201200000118010000000000
H2CA30226GARZILLI, NICHOLAS JOSEPH             C1DEM0000000000000000000000000000000000000000000000000000000000000000000000000000000000000000000000000000000000000000000000000000000000CA30???????000000000000000000000415201100000000000000000000
H6CA24113SHERMAN, BRAD                         I1DEM0002126501000000000000021396500000000000000301853300030053830000000000000025000000000025000000000000000000000000003658660000763190CA30 W     000040577800000000000516201200000000000000001500
H0CA27101REED, MARK                            C2REP0000028801000000000000000092230000000000000000347000000232410000000000000000000000000000000000000000000000000000000000000000028355CA30       000000000000000000000516201200000000000000000000
H0CA30089BENNING, DAVID                        C2REP0000003055000000000000000051120000000000000000207900000000220000000000000000205000000000000000000000000000000000000020500000001005CA30???????000000000000000000000331201200000000000000000000
H2CA30242SHELLEY, SUSAN                        C2REP0000007447000000000000000064000000000000000000000000000010470000000065000000260300000000000000000000000000000000000026030000004778CA30       000000000000000000000516201200000000000000000000
H2CA31109WICKMAN, RENEA                        C1DEM0000025563000000000000000250620000000000000000000000000005010000000490000001130000000000000000000000000000000000000113000000013773CA31       000000000000000000000516201200000000000000000000
H2CA31117KIM, JUSTIN SUNG-SUP                  C1DEM0000130790000000000000000812130000000000000000000000000495740000000215000000000000000000000000000000000000000000000000000000130575CA31       000000000000000000000516201200000005000000000000
H2CA31125AGUILAR, PETE                         C1DEM0000334193000000000000002317100000000000000000000000001024830000000000000000000000000000000000000000000000000000000235730000268443CA31       000006575000000000000516201200000000000000000000
H2CA31133DUTTON, ROBERT BOB                    C2REP0000142285000000000000001134010000000000000000000000000288850000000000000005000000000000000000000000000000000000000542400000091779CA31 W     000000050000000000000516201200000000000000000000
H8CA41063MILLER, GARY G                        I2REP0000741653000001135600007459470000000000000086044200008546480000000000000000000000000000000000000000000000000000000000000000339941CA31 W     000036700000000050000516201200000000000000000000
H2CA32206MACIAS, NORMA                         C1DEM0000037000000000000000000370000000000000000000000000000000000000000000000000000000000000000000000000000000000000000000000000032000CA32???????000000500000000000000516201200000010000000000000
H2CA32214GONZALEZ, G BILL                      C1DEM0000008360000000000000000077260000000000000000020000000003430000000000000000502000000000000000000000000000000000000000000000003340CA32       000000000000000000000516201200000000000000000000
H8CA34068NAPOLITANO, GRACE                     I1DEM0000346198000000000000003370260000000000000027913600002883080000000000000000000000000000000000000000000000000000000024740000124960CA32 W     000021944900000000000516201200000010000000000000
H0CA26087MILLER, DAVID LAWRENCE                C2REP0000005429000000000000000055990000000000000000029100000002210000000000000000000000000000000000000267000000000000000365060000005429CA32 W     000000000000000000000516201200000000000000000000
H2CA33121OBAGI, ZEIN ELABDINE JR               C1DEM0000055541000000000000000456640000000000000000000000000098780000000000000000439300000000000000000600000000000000000037930000050848CA33       000000000000000000000516201200000004860000000000
H2CA33154MAGOLIN, BRUCE                        C1DEM0000005341000000000000000047040000000000000000000000000000000000000000000000490000000000000000000000000000000000000049000000000741CA33       000000000000000000000516201200000000000000000000
H6CA24048WAXMAN, HENRY A                       I1DEM0000453620000000000000005509070000000000000099201900008947330000000000000000000000000000000000000000000000000000000009780000142666CA33 W     000028970000000000000516201200000003000000000000
H2CA30234DAVID, CHRISTOPHER                    C2REP0000008848000000000000000081820000000000000000000300000006690000000003000000000000000000000000000000000000000000000000000000008845CA33       000000000000000000000516201200000000000000000000
H2CA33139STEINMAN, DAVID WILLIAM               C3GRE0000089699000000000000000396990000000000000000000000000500000000000000000000000000000500000000000000000000000000002090250000000000CA33       000000000000000000000516201200000000000000000000
H2CA33147BLOOMFIELD, BILL                      C3IND0001214976000000000000009993040000000000000000000000002156720001106430000000000000000000000000000000000000000000001283250000108546CA33 W     000000000000000000000516201200000003000000000000
H2CA36330COLLETT, STEPHEN (STEVE)              C3LIB0000212989000000000000000692600000000000000000000000001472290000011235000020000000000000000000000000000000000000002231820000001754CA33       000000000000000000000331201200000000000000000000
H2CA30143BECERRA, XAVIER                       I1DEM0001110280000000000000010626310000000000000062193100006695790000000000000000000000000000000000000000000000000000000000000000375340CA34 W     000072138600000000640516201200000000000000003000
H2CA35100HALL, ISADORE III                     C1DEM0000176110000000000000000788510000000000000000000000000972590000000000000000000000000000000000000000000000000000000000000000156360CA35???????000001725000000000000331201200000000000000000000
H2CA35118MCLEOD, GLORIA NEGRETE                C1DEM0000193048000000000000000658100000000000000000000000001272380000000000000005000000000000000000000000000000000000000500000000116129CA35 W     000002686000000000000516201200000060750000000000
H6CA42099BACA, JOE                             I1DEM0000551383000000000000005495560000000000000012446500001262920000000000000000000000000000000000000000000000000000000073560000235386CA35 W     000030944500000000090516201200000084980000000325
H2CA27107HARMAN, JANE                          C1DEM0000000582000000000000000412320000000000000004069500000000440000000000000000000000000000000000000000000000000000000000000000000000CA36???????000000000000000000000505201100000000000000002500
H2CA36256BOWEN, DEBRA                          O1DEM0000485711000000000000004857110000000000000000000000000000000000000000000000000000000000000000000000000000000000000136740000432717CA36       000003310000000000000331201200000096110000002500
H2CA36348ADLER, DANIEL H                       O1DEM0000269719000000000000002697190000000000000000000000000000000000001350000008650000000000000000000000000000000000001057120000179490CA36       000000200000000000000331201200000125000000000000
H2CA36439RUIZ, RAUL DR                         C1DEM0000571138000000000000001852830000000000000000000000003858550000005000000000000000000000000000000000000000000000000000000000448538CA36 W     000011660000000010000516201200000000250000000000
H6CA36117WINOGRAD, MARCY                       O1DEM0000100644000000000000001006440000000000000000000000000000000000000000000000000000000000000000000000000000000000000107710000098790CA36       000000185400000000000630201100000000000000000000
H2CA36264WEBB, MICHAEL WALTER                  O2REP0000073062000000000000000712350000000000000000000000000018280000000000000000100000000000000000001000000000000000000000000000072062CA36       000000000000000000000331201200000002500000000000
H2CA36280GIN, MIKE                             O2REP0000170453000000000000001700580000000000000000000000000003950000000308000003250000000000000000002500000000000000000358320000130125CA36       000000175000000000000331201200000007850000000000
H2CA36298BOBKO, PATRICK "KIT"                  O2REP0000076033000000000000000760320000000000000000000000000000000000000000000000205200000000000000003718000000000000000000780000068213CA36       000000000000000000000718201100000012500000000000
H2CA36306EISELE, STEPHEN KARL                  O2REP0000040707000000000000000377400000000000000000000000000029670000000000000002957200000000000000000000000000000000000000000000011135CA36       000000000000000000000730201100000000000000000000
H2CA36314HUEY, CRAIG                           C2REP0001470661000000000000014706610000000000000000000000000000000000314025000088300000000000000000000000000000000000000000000000229390CA36       000003245000000111510331201200000000000000002500
H2CA36322NEWBERRY, GEORGE                      O2REP0000011081000000000000000110810000000000000000000000000000000000010031000000000000000000000000000000000000000000000000000000001050CA36       000000000000000000000417201200000000000000000000
H8CA44034BONO MACK, MARY                       I2REP0001137539000008165000007880250000000000000024288700005924020000000000000000000000000000000000000000000000000000000000000000508001CA36 W     000054361600000000000516201200000000000000000000
H0CA33117BASS, KAREN                           I1DEM0000455638000000000000004950370000000000000016336300001239630000000000000000000000000000000000000000000000000000000134890000176994CA37 W     000026774800000000000516201200000000000000000000
H2CA37262CALDERON, RONALD                      C1DEM0000086846000000000000000868460000000000000000000000000000000000000000000000000000000000000000000000000000000000000000000000050766CA37???????000003425000000000000331201200000080000000000000
H2CA39078SANCHEZ, LINDA                        I1DEM0000756384000000000000007065890000000000000017230000002220950000000000000000000000000000000000000000000000000000000000000000236934CA38 W     000051932500000001180516201200000000000000000000
H2CA38229ROBLES, JORGE                         C2REP0000004565000000000000000046410000000000000000024800000001720000000000000000056500000000000000000000000000000000000005650000004000CA38       000000000000000000000516201200000000000000000000
H2CA38237CAMPOS, BENJAMIN                      C2REP0000010621000000000000000058490000000000000000000000000046710000002500000000561700000000000000000000000000000000000009380000002404CA38 W     000000000000000000000516201200000000000000000000
H2CA39136CHEN, JAY                             C1DEM0000402247000000000000000600150000000000000000000000003422310000028611000009000000000000000000000000000000000000001155000000276034CA39 W     000000759900000000000516201200000003500000000000
H6CA39020ROYCE, EDWARD R                       I2REP0001914938000001055000020993250000000000000233476000021501980000000000000000000000000000000000000000000000000000000555050001168372CA39 W     000069422500000000000516201200000024900000000000
H8CA47052LAUTEN, ROBERT EDMUND                 C2REP0000007000000000000000000057480000000000000000000000000012510000007000000000700000000000000000000000000000000000000000000000000000CA39???????000000000000000000000516201200000000000000000000
H2CA33048ROYBAL-ALLARD, LUCILLE                I1DEM0000424204000000000000002964280000000000000001618900001439640000000000000000000000000000000000000000000000000000000000000000201118CA40 W     000021679900000000000516201200000000000000000500
H2CA06184NEVENIC, ANNA                         O1DEM0000000000000000000000000075000000000000000000100000000010000000000000000000850000000085000000000000000000000000000000000000000000CA41       000000000000000000000410201200000000000000000000
H2CA43245TAKANO, MARK                          O1DEM0000560464000000000000002870560000000000000000000000002734090000000000000000000000000000000000000000000000000000000000000000367264CA41 W     000018883900000000000516201200000002200000000000
H2CA41124SAWYER, VINCENT PETER                 O2REP0000005101000000000000000048880000000000000000000000000002120000002344000000000000000012000000000000000000000000000012000000001557CA41       000000000000000000000516201200000000000000000000
H2CA43377TAVAGLIONE, JOHN F                    O2REP0000629854000000000000002388320000000000000000000000003911720000000600000003000000000000000000000000000000000000000300000000542313CA41 W     000005670000000000000516201200000000000000000000
H8CA37079LEWIS, JERRY                          I2REP0000515761000000000000001710840000000000000061624900009609260000000000000000000000000000000000000000000000000000000000000000071300CA41???????000018250000000000000331201200000020000000002000
H2CA42148SMITH, CLIFFORD J                     C1DEM0000050150000000000000000253330000000000000000000000000248170000000000000005000000000000000000000000000000000000000500000000000150CA42       000000000000000000000516201200000000000000000000
H0CA45061THIBODEAU, CLAYTON                    C2REP0000017898000000000000000158820000000000000000000000000020150000007813000000000000000000000000000000000000000000000000000000010085CA42       000000000000000000000516201200000000000000000000
H2CA37023CALVERT, KENNETH S                    I2REP0000732160000000000000004669660000000000000017479500004399890000000000000000000000000000000000000000000000000000000086350000398463CA42 W     000033155100000000000516201200000011000000000000
H4CA23011WATERS, MAXINE                        I1DEM0000244523000000000000001241660000000000000002654700001469040000000000000000000000000000000000000000000000000000000607710000121236CA43 W     000006869500000000000516201200000000000000000000
H2CA44128VANDENBERG, LOUIS                     C1DEM0000000000000000000000000002770000000000000000902900000087530000000000000000000000000000000000000000000000000000000000000000000000CA44???????000000000000000000000630201100000000000000000000
H8CA36097HAHN, JANICE                          I1DEM0002048159000000000000019611360000000000000000000000000870230000000000000000000000000000000000000000000000000000001707830001378722CA44WW     000065233000000003380516201200000180000000000999
H8CA37137RICHARDSON, LAURA                     I1DEM0000423929000000000000003505380000000000000000508700000780790000000000000001000000000000000000000000000000200000004453870000142179CA44 W     000027175000000000000516201200000000000000000250
H8CA44091HEDRICK, BILL                         C1DEM0000032126000000000000000387180000000000000000659200000000000000022544000000000000000000000000000000000000000000000000000000009582CA44???????000000000000000000000930201100000002000000000000
H0CA45053POUGNET, STEPHEN P                    C1DEM0000023545000000000000000041240000000000000000285500000222760000000000000000000000000000000000000000000000000000000014320000001950CA45???????000000050000000000000630201100000000000000000000
H2CA48087KANG, SUKHEE                          C1DEM0000420816000000000000002083130000000000000000000000002125030000000000000000000000000000000000000000000000000000000000000000420816CA45 W     000000000000000000000516201200000010000000000000
H2CA42122WEBB, JOHN                            C2REP0000046086000000000000000407510000000000000000000000000053190000000000000001020000000000000000000000000000000000000177990000035886CA45       000000000000000000000516201200000000000000000000
H6CA48039CAMPBELL, JOHN BT III                 I2REP0000940842000001441300006730350000010000000071786300009856700000000000000000000000000000000000000000000000000000000000000000525941CA45 W     000039182300000000000516201200000017500000000000
H6CA46033SANCHEZ, LORETTA                      I1DEM0001186979000000000000004817540000000000000021751900009227440000000000000000000000000000000000000000000000000000000000000000689741CA46 W     000048543100000000400516201200000132420000001000
H0CA46051LURIE, BARAK                          C2REP0000033171000000000000000353870000000000000000221600000000000000033171000000000000000000000000033171000000000000000000000000000000CA46???????000000000000000000001107201100000000000000000000
H2CA46107HAYDEN, GERARD P                      C2REP0000060060000000000000000422410000000000000000000000000178190000000000000000000000000000000000000000000000000000000225370000060060CA46 W     000000000000000000000516201200000000000000000000
H2CA46123CULLUM, JOHN J                        C2REP0000015785000000000000000150610000000000000000000000000007240000000000000000225000000000000000000000000000000000000022500000012535CA46       000000100000000000000516201200000000000000000000
H2CA47097GARCIA, PAT                           C2REP0000006425000000000000000050420000000000000000000000000013810000000097000000000000000000000000000000000000000000000000000000006329CA46       000000000000000000000516201200000000000000000000
H2CA00104LOWENTHAL, ALAN                       C1DEM0000420584000000000000001836970000000000000000000000002368870000005000000000000000000000000000000000000000000000000431110000243830CA47 W     000017175500000000000516201200000000000000001000
H2CA38062MATHEWS, E. PETER                     C1DEM0000003939000000000000000033220000000000000000004400000006610000000050000000000000000000000000000000000000000000003566460000003889CA47       000000000000000000000516201200000000000000000000
H2CA47154SHAH, USHA JAYENDRA MRS               C1DEM0000020824000000000000000208240000000000000000000000000004000000000000000000000000000103750000000000000000000000000094320000001960CA47       000000000000000000000516201200000000000000000000
H2CA47105DELONG, GARY                          C2REP0000630770000000000000003121400000000000000000000000003186290000000000000000000000000000000000000000000000000000000000000000607690CA47 W     000002308000000000000516201200000034500000000000
H2CA47113KUYKENDALL, STEVEN T                  C2REP0000140986000000000000001386570000000000000000000000000023300000000191000002000000000000000000000000000000000000000465890000120795CA47       000000000000000000000516201200000000500000000000
H2CA47121EDGAR, TROY                           C2REP0000501161000000000000003690450000000000000000000000001321160000000250000040500000000000000000225000000000000000001800000000090261CA47???????000000025000000000000516201200000075000000000000
H8CA32039KAHN, SANFORD W                       C2REP0000011378000000000000000107130000000000000000000000000006630000011200000000000000000000000000000000000000000000000000000000000178CA47       000000000000000000000516201200000000000000000000
H0CA00074SHAH, JAYENDRA ARVINDLAL DR           C3IND0000012380000000000000001115860000000000000000000000000000000000000000000001010500000000000000000000000000000000000420260000002275CA47       000000000000000022750331201200000000000000000000
H8CA42061ROHRABACHER, DANA                     I2REP0000326780000000000000003239110000000000000027938900002822580000000000000000000000000000000000000000000000000000000000000000294155CA48 W     000003262500000000000516201200000011500000000000
H2CA49218TETALMAN, JERRY                       C1DEM0000029153000000000000000224880000000000000000000000000066650000000000000000500000000000000000000000000000000000000056000000023153CA49 W     000000100000000000000516201200000000000000000000
H0CA48024ISSA, DARRELL                         I2REP0001155636000006391300004160530000000000000038600200011255840000000000000000000000000000000000000000000000000000000227030000589524CA49 W     00004987380000000000051620120000001000-000000250
H2CA49226EIDEN, RICHARD JOHN                   C3NOP0000019647000000000000000156290000000000000000000000000040180000000607000000000000000000000000000000000000000000000000000000019039CA49       000000000000000000000516201200000026790000000000
H2CA50133NASCENZI, ROBERT ANTHONY              C1DEM0000077654000000000000000776540000000000000000000000000000000000003223000000000000000000000000000000000000000000000000000000073431CA50???????000000100000000000001115201100000310260000000000
H8CA52052HUNTER, DUNCAN D.                     I2REP0000611600000000000000005609940000012500000003229700000829020000000000000000000000000000000000000000000000000000000000000000249549CA50 W     000035785200000000000516201200000001750000000000
H2CA50026VARGAS, JUAN C.                       O1DEM0000516692000000000000004492600000000000000000005200000674840000000000000006000000000000000000000000000000000000002385640000235060CA51 W     000022100000000000000516201200000010000000000000
H2CA50034FILNER, BOB                           I1DEM0000150477000000000000001567290000000000000000626600000000000000000000000000000000000000000000000000000000000000000000000000052587CA51???????000009175000000000000516201200000007000000000000
H2CA51164DUCHENY, DENISE MORENO                O1DEM0000270685000000000000002263200000000000000000000000000443640000009638000000746800000000000000000000000000000000000241610000228510CA51       000002395500000000000516201200000000000000000000
H8CA53019CRIMMINS, MICHAEL                     O2REP0000000354000000000000000059410000000000000000577500000000320000000000000000010000000000000000000000000000000000000000000000000069CA51 W     000000000000000000001231201100000000000000000000
H2CA52063SALDANA, LORI                         C1DEM0000306494000000000000002805400000000000000000000000000259530000000000000000000000000000000000000000000000000000000120280000285853CA52       000002064100000000000516201200000005510000000000
H2CA52089PETERS, SCOTT                         C1DEM0001773618000000000000014032250000000000000000000000003703930000000000000125000000000000000000000000000000000000012593130000483598CA52 W     000004002000000000000516201200000025000000000000
H2CA52097DECOURT-PARK, SHIRLEY                 C1DEM0000010838000000000000000105880000000000000000000000000002500000000000000000000000000007500000000000000000000000000258100000010088CA52       000000000000000000000516201200000000000000000000
H2CA50141STAHL, JOHN K                         C2REP0000623267000000000000000459300000000000000000000000005773380000000000000060000000000000000000000000000000000000006000000000023267CA52       000000000000000000000516201200000000000000000000
H2CA52071IVERSON, WAYNE                        C2REP0000107183000000000000000755920000000000000000000000000315920000004773000007500000000000000000000000000000000000000750000000020405CA52       000000500000000000000516201200000005000000000000
H4CA49032BILBRAY, BRIAN PHILLIP                I2REP0001133571000001135600005210950000000000000015837900007861790000000000000000000000000000000000000000000000000000000000000000553665CA52 W     000056277500000055000516201200000028500000000000
H2CA52105DOYLE, JACK                           C3UNK0000059019000000000000000139910000000000000000000000000450280000004570000005000000000000000000000000000000000000000500000000004449CA52       000000000000000000000516201200000000000000000000
H0CA49055DAVIS, SUSAN A                        I1DEM0000395948000000001000004687350000000000000047787400004050870000000000000000000000000000000000000000000000000000000000000000186650CA53 W     000020750000000001180516201200000000000000000000
H0CA51036POPADITCH, NICHOLAS ALLEN             C2REP0000022802000000000000000233820000000000000000573500000051540000000000000000000000000000000000000000000000000000000000000000021762CA53 W     000000000000000000000516201200000000000000000000
H6CO01141DEGETTE, DIANA L.                     I1DEM0000696049000002051100006879850000000000000010882900001168930000000000000000000000000000000000000000000000000000000000000000310459CO01       000036025000000000000606201200000000000000000000
H2CO01124STROUD, DANNY E                       C2REP0000006708000000000000000056080000000000000000000000000011000000000000000000000000000000000000000000000000000000000000000000006708CO01       000000000000000000000606201200000000000000000000
H8CO02137POLIS, JARED                          I1DEM0000788959000001000000008360250000000000000038212600003350600000186600000000000000000000000000002000000000000000000000000000586748CO02       000000100000000030000606201200000022500000000000
H2CO02130WEISSMANN, ERIC A                     C2REP0000199388000000000000001766290000000000000000000000000227590000046501000000000000000000000000000000000000000000000100000000151534CO02       000000050000000000000606201200000005000000000000
H2CO02148LUNDBERG, KEVIN                       C2REP0000067827000000000000000545460000000000000000000000000132810000000000000000000000000000000000000000000000000000000000000000067827CO02       000000000000000000000606201200000001000000000000
H2CO03138PACE, SALVATORE II                    C1DEM0000983854000001240000003694200000000000000000000000006144340000000500000000000000000000000000000000000000000000000000000000718806CO03       000024520000000016350606201200000022330000006000
H6CO03139TIPTON, SCOTT R.                      I2REP0001420544000002657600005118170000000000000002411700009282150000000000000000000000000000000000000000000000000000000000000000987511CO03       000040095700000055000606201200000112000000000000
H2CO03146CASIDA, TISHA TRINETTE                C3UNK0000019862000000000000000123820000000000000000000000000074790000000000000000000000000000000000000000000000000000000000000000019862CO03???????000000000000000000000331201200000000000000000000
H2CO04094SHAFFER, BRANDON                      C1DEM0000471252000000000000002474870000000000000000000000002237650000000000000000000000000000000000000000000000000000000000000000374893CO04       000009625000000000210606201200000000500000000000
H0CO04122GARDNER, CORY                         I2REP0001633889000002423000007696570000022819000001898900008832190000000000000000000000000000000000000000000000000000000000000000912051CO04       000069161200000005000606201200000060700000000000
H2CO05091BLAHA, ROBERT B                       C2REP0000818711000000000000008047940000000000000000000000000139170000000000000072208200000000000000000000000000000000007312080000096229CO05       000000000000000000000606201200000000000000000000
H6CO05159LAMBORN, DOUGLAS                      I2REP0000480369000000000000005905560000000000000015456300000443760000000000000001500000000000000000000000000000000000000150000000154247CO05       000031045800000000000606201200000000000000000000
H2CO05067PIRTLE, JAMES C                       C3LIB0000003445000000000000000030750000000000000000000000000003690000001996000000000000000000000000000000000000000000000000000000001433CO05???????000000000000000000000331201200000000500000000000
H2CO05059ANDERSON, DAVID C                     C3NNE0000124573000000000000000811970000000000000000000000000433760000000000000010455600000000000000000000000000000000001045560000020017CO05???????000000000000000000000331201200000000000000000000
H2CO00035HANEY, PERRY                          C1DEM0000573687000000000000005721600000000000000000000000000015260000010887000054100000000000000000430000000000000000001110000000021800CO06???????000000000000000000000331201200000000000000000000
H2CO06123MIKLOSI, JOE                          C1DEM0000642229000000000000002476460000000000000000000000003941820000000000000000000000000000000000000000000000000000000000000000436206CO06       000020602300000000000606201200000033780000000000
H8CO06138COFFMAN, MICHAEL                      I2REP0002151941000042989500009773050000000000000041153700015861730000000000000000000000000000000000006850000000000000000000000001230353CO06       000048669300000050000606201200000098000000000000
H2CO06149POLHEMUS, KATHY L                     C3IND0000037541000000000000000031410000000000000000000000000344000000037541000000000000000000000000000000000000000000000000000000000000CO06???????000000000000000000000331201200000000000000000000
H6CO07023PERLMUTTER, EDWIN G                   I1DEM0001549012000000620000006680200000000000000004522200009262140000000000000000000000000000000000000000000000000000000000000000730602CO07       000080896800000000000606201200000000250000000000
H2CO07121COORS, JOSEPH JR                      C2REP0001035949000000000000008081570000000000000000000000002277920000568248000001500000000000000000000000000000000000000150000000449494CO07       000000300000000000000606201200000000000000000000
H2CO07139BALL, MATTHEW CHRISTIAN               C2REP0000005000000000000000000005950000000000000000000000000044050000000000000000500000000000000000000000000000000000000050000000000000CO07???????000000000000000000000331201200000000000000000000
H2CT00033WIELAND, RICHARD E                    C3UNK0000540626000000000000000289010000000000000000000000005117250000000606000053000000000000000000000000000000000000005300000000010020CT00???????000000000000000000000331201200000000000000000000
H8CT01046LARSON, JOHN B                        I1DEM0001063536000000000000011215650000000000000041684700003588180000000000000000000000000000000000000000000000000000000080760000440989CT01???????000060399600000000160424201200000003000000000000
H2CT01155MCDONALD, MICHAEL W                   C2REP0000007225000000000000000004290000000000000000000000000067960000000000000000000000000000000000000000000000000000000000000000007225CT01???????000000000000000000000428201200000000000000000000
H2CT01163DECKER, JOHN HENRY                    C2REP0000006800000000000000000007310000000000000000000000000060690000002000000000000000000000000000000000000000000000000000000000004800CT01???????000000000000000000000428201200000000000000000000
H2CT02112COURTNEY, JOSEPH D                    I1DEM0000942515000000000000003620170000000000000023555900008160570000000000000000000000000000000000000000000000000000000000000000457008CT02???????000046150800000000150424201200000000500000004500
H0CT02140NOVAK, DARIA IRENE                    C2REP0000026736000000000000000212600000000000000000074800000030290000006475000000000000000000000000000000000000000000000000000000020114CT02       000000000000000000000428201200000021070000000000
H2CT02138COUTU, CHRISTOPHER D                  C2REP0000130867000000000000000785130000000000000000000000000523540000000000000000000000000000000000000000000000000000000013680000129417CT02???????000000145000000000000428201200000000000000000000
H0CT03072DELAURO, ROSA L                       I1DEM0000719172000000000000006230670000000000000000518500001012890000000000000000000000000000000000000000000000000000000000000000324726CT03???????000039141500000000270424201200000002000000000250
H2CT05180WINSLEY, WAYNE ANTHONY                O2REP0000011707000000000000000101560000000150000000000000000015460000000000000000000000000000000000000000000000000000000000000000011654CT03???????000000000000000000000428201200000000000000000000
H8CT04172HIMES, JIM                            I1DEM0001789840000000095000004483300000000000000001686300013583720000000000000000000000000000000000000000000000000000002700010001172258CT04???????000060360000000005660424201200000030000000001000
H2CT04043MEEK, CHRISTOPHER D                   C2REP0000366432000000000000003217430000000000000000000000000446890000000000000016800000000000600000000000000000006000001680000000197324CT04       000000100000000000000428201200000000000000000000
H2CT04050ORNER, DAVID SCOTT                    C2REP0000071136000000000000000705930000000000000000000000000005430000054010000000000000000000000000000000000000000000000000000000017081CT04???????000000000000000000000331201200000410810000000000
H2CT04068OBSITNIK, STEPHEN                     C2REP0000638562000000000000001235990000000000000000000000005149620000000000000013379300000000000000000000000000000000001337930000503769CT04       000000100000000000000428201200000027870000000000
H2CT05123ROBERTI, DANIEL FRANCIS               O1DEM0001119821000000000000006115840000000000000000000000005082360000000500000000000000000000000000000000000000000000000000000001082619CT05       000003600000000006420424201200000052500000000000
H2CT05131ESTY, ELIZABETH                       O1DEM0001261813000000000000004607380000000000000000000000008010750000007695000002500000000000000000000000000000000000000250000001204005CT05       000002285000000000070424201200000001800000000000
H2CT05164WILLIAMS, MICHAEL J                   O1DEM00001325140000000000000012889900000000000000000000-0000401440000000823000001000000000000000000009116000000000000000008840000121023CT05???????000000066700000000001231201100000310000000000000
H2CT05172DONOVAN, CHRISTOPHER G                O1DEM0001001732000000000000003617240000000000000000000000006400080000000000000000000000000000000000000000000000000000000000000000765952CT05       000023568000000000000424201200000000000000000000
H6CT05124MURPHY, CHRISTOPHER SCOTT MR.         I1DEM0000086873000000000000001163510000082500000003017300000006960000000000000000000000000000000000000000000000000000000000000000000020CT05???????000008650000000000000331201200000000000000005000
H0CT05119BERNIER, JUSTIN                       O2REP0000658433000000000000004894300000000000000000333700001723400000025000000000000000000000000000037000000000000000000000000000606075CT05       000002735800000000000428201200000000000000000000
H0CT05150GREENBERG, MARK DANIEL                O2REP0001124664000000000000006904340000000000000000000000004342300000000100000084504000000000000000160000000000000000006885330000279371CT05       000000000000000000000428201200000001500000000000
H2CT05149WILSON-FOLEY, LISA A                  O2REP0001068419000000000000005812210000000000000000000000004871980000002210000052000000000000000000000000000000000000005200000000516390CT05       000002700000000000500428201200000004500000000000
H2CT05156CLARK, MICHAEL                        O2REP0000301185000000000000001119460000000000000000000000001892390000008125000010000000000000000000000000000000000000001000000000187060CT05???????000000600000000000000428201200000000000000000000
H2CT05206RORABACK, ANDREW                      O2REP0000422959000000000000001554000000000000000000000000002675590000000000000000000000000000000000000000000000000000000000000000422959CT05       000000000000000000000428201200000000000000000000
H0DC00058NORTON, ELEANOR HOLMES                I1DEM0000209209000000000000002178710000000000000028376800002751070000000000000000000000000000000000000000000000000000000000000000094471DC00 W     000011450000000000000331201200000000000000000000
H2DE00130KOVACH, THOMAS H                      C2REP0000106319000000000000000758890000000000000000000000000304300000000000000001000000000000000000000000000000000000000140000000095218DE00???????000000110000000000000331201200000000000000000000
H0DE01017CARNEY, JOHN CHARLES JR               I1DEM0000788853000000000000002281250000020000000002492500005856530000000000000000000000000000000000000000000000000000000000000000317727DE01???????000041675000000000000331201200000000000000000000
H0DE01025IZZO, ROSE                            C2REP0000011737000000000000000010150000000000000000000100000107230000000000000000717500000040000000000000000000000000000111750000000560DE01???????000000000000000000000331201200000000000000000000
H2FL01100MILLER, JEFFERSON B.                  I2REP0000337478000000000000002587510000000000000001862300000973500000000000000000000000000000000000000000000000000000000000000000153746FL01???????000018355900000000000331201200000000000000000000
H2FL01209DRUMMOND, WILLIAM "CLEAVE" II         C2REP0000000412000000000000000004370000000000000000003500000000100000000000000000037700000000000000000000000000000000000003770000000035FL01???????000000000000000000000331201200000000000000000000
H0FL02086LAWSON, ALFRED J JR                   C1DEM0000073342000000000000000037480000000000000000205200000716450000001000000000000000000000000000001555000000000000000314450000072066FL02???????000000000000000002500331201200000000000000000000
H2FL02090PETERS, ALVIN L                       C1DEM0000067826000000000000000161900000000000000000000000000516360000000000000002500000000000000000000000000000000000000250000000042801FL02???????000000000000000000000331201200000000000000000000
H2FL02108LILES, ANDREW JAY                     C1DEM0000017251000000000000000065790000000000000000000000000106730000005000000000000000000000000000000000000000000000000000000000012251FL02???????000000000000000000000331201200000000000000000000
H2FL02116BEMBRY, LEONARD LEE                   C1DEM0000181553000000000000000579850000000000000000000000001235680000000000000000000000000000000000000000000000000000000000000000144053FL02???????000003750000000000000331201200000045000000000000
H0FL02110SOUTHERLAND, WILLIAM STEVE II         I2REP0000828606000002304500003322630000000000000000014200004964850000021000000000000000000000000000000000000000000000000120000000475176FL02???????000030183500000050000331201200000006600000000000
H2FL02082ARGENZIANO, NANCY                     C3IND0000015841000000000000000149550000000000000000000000000008860000000000000000000000000000000000000000000000000000000000000000015841FL02???????000000000000000000000331201200000000000000000000
H0FL03100KOLB, EUNA LEANNE                     C2REP0000011025000000000000000061410000000000000000000000000048840000000000000000094000000000000000000000000000000000000009400000010085FL03???????000000000000000000000331201200000000000000000000
H0FL06061YOST, MICHAEL F ''MIKE'' F.           C2REP0000005244000000000000000081290000000000000000330600000004210000000000000000000000000000000000000500000000000000000041950000005244FL03???????000000000000000000000331201200000000000000000000
H2FL06117OELRICH, STEPHEN M                    C2REP0000122715000000000000000296320000000000000000000000000930830000000500000000000000000000000000000000000000000000000000000000117215FL03???????000000500000000000000331201200000000000000000000
H2FL06125JETT, JAMES                           C2REP0000087107000000000000000301250000000000000000000000000569820000000000000007523200000000000000000000000000000000000752320000011875FL03???????000000000000000000000331201200000000000000000000
H8FL06056STEARNS, CLIFFORD B.                  I2REP0000489137000000000000001733040000000000000212738700024428870000000000000000000000000000000000000000000000000000000000000000175379FL03???????000027915000000000000331201200000000000000000000
H0FL04033PUESCHEL, DEBORAH KATZ                C2REP0000000000000000000000000000000000000000000000091500000009150000000000000000000000000000000000000000000000000000000000000000000000FL04???????000000000000000000000330201200000000000000000000
H0FL04066CRENSHAW, ANDER HON.                  I2REP0000362086000000000000002783270000000000000054761300006313730000000000000000000000000000000000000000000000000000000000000000200823FL04???????000015475000000000000331201200000000000000000000
H2FL04112KLAUDER, JAMES R                      C2REP0000013907000000000000000036000000000000000000325000000135570000000000000000393200000000000000000000000000000000000039320000009975FL04???????000000000000000000000331201200000000000000000000
H2FL04120BLACK, BOB (ROBERT HARRISON BLACK)    C2REP0000001205000000000000000010810000000000000000000000000001230000001000000000000000000000000000000000000000000000000000000000000205FL04???????000000000000000000000331201200000000000000000000
H2FL03056BROWN, CORRINE                        I1DEM0000339826000000000000002931230000000000000000423600000509390000000000000000500000000000000000005000000000000000000167000000162626FL05???????000017150000000000000331201200000088000000001500
H0FL07077BEAVEN, HEATHER M                     C1DEM0000023710000000000000000124420000000000000000270800000139760000000000000000000000000000000000000000000000000000000011500000023710FL06???????000000000000000000000331201200000000000000000000
H2FL07115VERMA, VIPIN                          C1DEM0000012009000000000000000109350000000000000000000000000010740000000000000000040000000000000000000000000000000000000004000000011609FL06???????000000000000000000000331201200000000000000000000
H0FL24148MILLER, CRAIG S                       C2REP0000101470000000000000000197330000000000000000146400000832000000003000000003010000000000000000000000000000000000000301000000063370FL06???????000000500000000000000331201200000000000000000000
H2FL00292DESANTIS, RONALD D                    C2REP0000227341000000000000000085380000000000000000000000002188030000000614000001010000000000000000000078000000000000000236250000215627FL06???????000000100000000000000331201200000000000000000000
H2FL06109YOHO, THEODORE SCOTT                  C2REP0000192050000000000000000945250000000000000000000000000975250000000000000005000000000000000000003339000000000000000466610000139550FL06???????000000250000000000000331201200000054500000000000
H2FL06133CLARK, RICHARD ANDREW                 C2REP0000182585000000000000000071770000000000000000000000001754080000000000000000000000000000000000000000000000000000000195000000177085FL06???????000000550000000000000331201200000000000000000000
H0FL24171RUIZ, NICHOLAS III                    C1DEM0000027215000000000000000215080000000000000000000000000057340000000000000000000000000000000000000000000000000000000000000000027215FL07???????000000000000000000000331201200000000000000000000
H0FL24049ADAMS, SANDY                          I2REP0000779652000001060900003824600000000000000006211300004593050000000000000010000000000000000000100000000000000000001045210000314421FL07???????000035433200000000000331201200000002000000001000
H2FL08055MICA, JOHN L. MR.                     I2REP0001154368000000000000004731830000000000000055308300012332680000000000000000000000000000000000000000000000000000000000000000503175FL07???????000064340700000000000331201200000000000000000000
H2FL15084GUNTER, DAVID ALAN                    C1DEM0000026964000000000000000131270000000000000000000000000138370000000000000000000000000000000000000000000000000000000000000000026964FL08???????000000000000000000000331201200000000000000000000
H0FL08158KELLY, KURT                           C2REP0000000000000000000000000414760000000000000004147600000000000000000000000000000000000000000000000000000000000000000000000000000000FL08???????000000000000000000000514201200000009320000000000
H8FL15107POSEY, BILL                           I2REP0000684585000000000000002630830000000000000010181500005233170000000000000000000000000000000000000000000000000000000000000000407828FL08???????000027595000000000000331201200000002000000000000
H6FL08213GRAYSON, ALAN MARK                    C1DEM0001716771000000000000008906360000000000000000033300008264680000000000000000000000000000000000000000000000000000013239160001686423FL09???????000002267600000000000331201200000000000000000000
H2FL15076OXNER, MARK ANTHONY                   C2REP0000069278000000000000000418490000000000000000000000000274300000000000000006463800000000000000000000000000000000000646380000004640FL09???????000000000000000000000331201200000000000000000000
H2FL27022MELENDEZ, JULIUS                      C2REP0000055900000000000000000072410000000000000000000000000486590000000000000000000000000000000000000000000000000000000000000000055900FL09???????000000000000000000000331201200000000000000000000
H6FL08247LONG, WILLIAM TODD                    C2REP0000000755000000000000000000000000000000000000000000000007550000000000000000000000000000000000000000000000000000000000000000000755FL09???????000000000000000000000331201200000000000000000000
H2FL09111NIEVES, MIGUEL A                      C3NNE0000000100000000000000000000000000000000000000000000000001000000000100000000000000000000000000000000000000000000000000000000000000FL09???????000000000000000000000331201200000000000000000000
H2FL08063DEMINGS, VALDEZ VAL                   C1DEM0000760631000000147500002783800000000000000000000000004822510000011555000000000000000000000000000000000000000000000000000000603551FL10???????000014250000000005600331201200000034650000000000
H0FL08208WEBSTER, DANIEL                       I2REP0000625696000001115200003000640000000000000006499000003906220000000000000000000000000000000000000000000000000000000000000000363063FL10???????000025114000000000000331201200000002000000000000
H2FL10143AYRES, DARREN L                       C2REP0000010385000000000000000103850000000000000000000000000000000000010115000000000000000000000000000000000000000000000000000000000270FL10???????000000000000000000000331201200000000000000000000
H6FL06035YOUNG, C. W. BILL                     I2REP0000443386000000000000003201230000000000000020334000003266020000000000000000000000000000000000000000000000000000000000000000258460FL10???????000018240400000000000331201200000000000000000000
H0FL06079SCHONBERG, STEVE                      C1DEM0000000000000000000000000000000000000000000000000000000000000000000000000000000000000000000000002589000000000000000000000000000000FL11???????000000000000000000000426201100000000000000000000
H0FL05139NUGENT, RICHARD B                     I2REP0000439990000002646900001959910000000000000001165600002556550000000000000000000000000000000000011000000000000000000000000000169445FL11???????000024407500000000000331201200000000000000000000
H2FL07057SHARPE, MARK                          C2REP0000090968000000000000000579400000000000000000000000000330280000000000000000000000000000000000000000000000000000000000000000090968FL11???????000000000000000000000331201200000010000000000000
H2FL11083BENNETT, MICHAEL S MIKE               C2REP0000002500000000000000000025000000000000000000000000000000000000000000000000000000000000000000000000000000000000000000000000002500FL11???????000000000000000000000630201100000000000000000000
H6FL11175ADAMS, EDDIE JR                       C2REP0000000000000000000000000000000000000000000000000000000000000000000000000000000000000000000000000000000000000000000000000000000000FL11???????000000000000000000000331201100000000000000000000
H0FL11178CASTELLANO, THOMAS CLARK              C3NNE0000000000000000000000000000000000000000000000000000000000000000000000000000000000000000000000000000000000000000000000000000000000FL11???????000000000000000000000228201200000000000000000000
H2FL09103SNOW, JONATHAN MICHAEL                C1DEM0000005877000000000000000052930000000000000000000000000005840000001250000000250000000000000000000000000000000000000025000000002127FL12???????000000000000000000000331201200000000000000000000
H6FL09070BILIRAKIS, GUS                        I2REP0000467653000000000000002369460000000000000020803000004387380000000000000000000000000000000000000000000000000000000000000000293257FL12???????000017225000000000000331201200000000000000000000
H2FL10150EHRLICH, JESSICA D                    C1DEM0000103472000000000000000266910000000000000000000000000767820000000774000001500000000000000000000000000000000000000150000000073198FL13???????000001450000000000000331201200000000000000000000
H2FL13196HAYDEN, NINA LYNN                     C1DEM0000013524000000000000000005090000000000000000000000000130140000000000000000010000000000000000000000000000000000000001000000013424FL13???????000000000000000000000331201200000000000000000000
H6FL11126CASTOR, KATHY                         I1DEM0000645321000000000000002070590000000000000032719600007654590000000000000000000000000000000000000000000000000000000000000000407368FL14???????000023491000000000000331201200000000000000000000
H2FL00284KREEGEL, PAIGE VANIER                 C2REP0000263340000000000000000549220000000000000000000000002084180000000000000003600000000000000000001000000000000000000350000000218840FL14???????000000800000000005000331201200000005000000000000
H2FL11091OTERO, EVELIO                         C2REP0000038072000000000000000228800000000000000000000000000151920000000000000001000000000000000000000000000000000000000000000000028072FL14???????000000000000000000000331201200000000000000000000
H2FL14111DAVIDOW, JOSEPH ASHER                 O2REP0000002183000000000000000018420000000000000000000000000003410000000000000000000000000000000000000000000000000000000000000000002183FL14???????000000000000000000000331201200000000000000000000
H2FL14137HALL, TAMMARA A                       O2REP0000079470000000000000000794700000000000000000000000000000000000005100000000000000000000000000000000000000000000000000000000073370FL14???????000000100000000000000330201200000190580000001000
H2FL14178OWENS, BRIAN                          O2REP0000171213000000000000001252040000000000000000000000000460090000136003000000000000000000000000000000000000000000000000000000035210FL14???????000000000000000000000331201200000000000000000000
H2FL14186DONALDS, BYRON                        O2REP0000022626000000000000000120950000000000000000000000000105310000001338000000000000000000000000000000000000000000000000000000018788FL14???????000000250000000000000331201200000000000000000000
H4FL14059MACK, CONNIE                          I2REP0002243046000000000000012710570000000000000040900300013809920000000000000000000000000000000000000000000000000000000000000002031911FL14???????000020925000000000000331201200000025000000000000
H2FL14129SCHERER, THOMAS E                     O3OTH0000140000000000000000001400000000000000000000000000000000000000000000000014000000000000000000140000000000000000000000000000000000FL14???????000000000000000000000514201200000000000000000000
H0FL15054ROBERTS, C SHANNON                    C1DEM0000003323000000000000000020680000000000-00000058900000012550000000000000000193500000000000000000000000000000000000017270000001388FL15???????000000000000000000000331201200000000000000000000
H0FL12101ROSS, DENNIS ALAN                     I2REP0000600821000000000000002976520000000000000002321400003263830000000000000000000000000000000000014792000000000000000052080000228647FL15???????000037217400000000000331201200000000000000000000
H0FL16052HORN, JIM                             C1DEM0000180200000000000000000027050000000000000000028800001777830000000000000017520000000000000000000000000000000000002569500000005000FL16???????000000000000000000000331201200000000000000000000
H2FL13188FITZGERALD, KEITH                     C1DEM0000516220000000097500000938600000000000000000000000004223600000000000000000000000000000000000000000000000000000000000000000421833FL16???????000009260000000008110331201200000000000000000000
H6FL16067LUTRIN, DAVID LEE                     C1DEM0000000738000000000000000008270000000000000000010000000000090000000124000000000000000000000000000000000000000000000000000000000613FL16???????000000000000000000000331201200000006130000000000
